:020000040800F2
:10000000C02000202502000827110008FD0F00086D
:10001000251100081D0500089D11000800000000C2
:100020000000000000000000000000008D0100083A
:100030003107000800000000D1010008331100085A
:100040003F0200083F0200083F0200083F0200088C
:100050003F0200083F0200083F0200083F0200087C
:100060003F0200083F0200083F0200083F0200086C
:100070003F0200083F0200083F0200083F0200085C
:100080003F0200083F0200083F0200083F0200084C
:100090003F0200083F0200083F0200083F0200083C
:1000A0003F0200083F0200083F0200083F0200082C
:1000B0003F0200083F020008000000003F02000865
:1000C0003F02000800000000000000003F0200089E
:1000D000000000003F0200083F020008000000008E
:1000E0003F0200083F0200083F02000800F002F84B
:1000F00000F03CF80AA090E8000C82448344AAF186
:100100000107DA4501D100F031F8AFF2090EBAE883
:100110000F0013F0010F18BFFB1A43F0010318473B
:10012000FC2F00001C300000103A24BF78C878C1B2
:10013000FAD8520724BF30C830C144BF04680C60ED
:10014000704700000023002400250026103A28BF35
:1001500078C1FBD8520728BF30C148BF0B60704739
:100160001FB500F0F7F81FBD10B510BD00F058F92D
:100170001146FFF7F5FF01F0BBFA00F076F903B482
:10018000FFF7F2FF03BC00F07FF90000224B196873
:100190000868B0E8F00F80F30988BFF36F8F4FF065
:1001A000000080F311884EF00D0E70470000000033
:1001B00006480068006880F3088862B661B6BFF33D
:1001C0004F8FBFF36F8F00DF00BF00BF08ED00E06F
:1001D000EFF30980BFF36F8F0F4B1A6820E9F00F20
:1001E000106008B54FF0500080F31188BFF34F8FB7
:1001F000BFF36F8F02F01AFA4FF0000080F31188FE
:10020000BDE8084019680868B0E8F00F80F3098875
:10021000BFF36F8F704700BF20000020EFF3058011
:10022000704700000948804709480047FEE7FEE79D
:10023000FEE7FEE7FEE7FEE7FEE7FEE7FEE7FEE796
:1002400004480549054A064B704700009B11000809
:10025000ED000008C01A0020C0200020C01C0020B3
:10026000C01C0020032A40F2308010F0030C00F084
:10027000158011F8013BBCF1020F624498BF11F8E0
:1002800001CB00F8013B38BF11F8013BA2F1040299
:1002900098BF00F801CB38BF00F8013B11F0030311
:1002A00000F06A80083AC0F0088051F8043B083A30
:1002B00051F804CBA0E80810F5E7121D5CBF51F817
:1002C000043B40F8043BAFF30080D20724BF11F891
:1002D000013B11F801CB48BF11F8012B24BF00F8F6
:1002E000013B00F801CB48BF00F8012B704702F03A
:1002F000FF0343EA032242EA024200F071B84FF0E2
:10030000000200B5134694469646203922BFA0E865
:100310000C50A0E80C50B1F12001BFF4F7AF090771
:1003200028BFA0E80C5048BF0CC05DF804EB890062
:1003300028BF40F8042B08BF704748BF20F8022BA5
:1003400011F0804F18BF00F8012B704770477047BD
:100350007047000070B5064C7C44064D7D4403E0B8
:10036000206820448047241DAC42F9D170BD0000B4
:10037000E02D0000E02D000010B5203AC0F00B8009
:10038000B1E81850203AA0E81850B1E81850A0E899
:100390001850BFF4F5AF5FEA027C24BFB1E81850F3
:1003A000A0E8185044BF18C918C0BDE810405FEA63
:1003B000827C24BF51F8043B40F8043B08BF7047DF
:1003C000D20728BF31F8023B48BF11F8012B28BFE4
:1003D00020F8023B48BF00F8012B70474FF00002A5
:1003E0000429C0F0128010F0030C3FF48AAFCCF166
:1003F000040CBCF1020F18BF00F8012BA8BF20F8B5
:10040000022BA1EB0C01FFF77CBF5FEAC17C24BF8C
:1004100000F8012B00F8012B48BF00F8012B7047B2
:10042000754600F02BF8AE4605006946534620F0AD
:100430000700854618B020B5FFF702FFBDE8204051
:100440004FF000064FF000074FF000084FF0000B90
:1004500021F00701AC46ACE8C009ACE8C009ACE843
:10046000C009ACE8C0098D46704710B50446AFF32B
:1004700000802046BDE81040FFF781BE004870476D
:100480005C1A00207047000001491820ABBEFEE74F
:100490002600020010B5054C616900B101208847B3
:1004A000A169BDE81040002008470000001A0020A4
:1004B00010B5054C216900B1012088476169BDE88C
:1004C0001040002008470000001A0020044B196863
:1004D0000A4600E0496B0029FCD14263186070476E
:1004E0009C00002010B5054CA16900B1012088478F
:1004F0006169BDE81040002008470000001A002094
:1005000010B5054C616900B1012088472169BDE83B
:100510001040002008470000001A0020FEE70023DA
:10052000002805D0082904D000EB8100C26001201A
:10053000704700EB83015B1CDBB2CA60082BF8D369
:10054000F5E700002DE9F04116460C00054624D0E1
:1005500038212046FFF7D3FE201D05215FF000075C
:1005600015F8012B00F8012BE2B1491EF8D10A2041
:100570006072E0722660A07A20F00300401CA07236
:10058000B047A17A60F38301A17284F831702046EC
:10059000FFF79CFF0120BDE8F0810020FBE700BFD2
:1005A00000F8017B491EFBD1E1E770B50446006805
:1005B0008047A17A0025C1F3810282421CD094F8C1
:1005C00031305B1CDBB284F83130022B14D960F37C
:1005D0008301A17284F83150607A0A2801D040B1B9
:1005E0000EE0C1F3810001F00301884208D1657279
:1005F00006E00120607203E0824201D184F83150AC
:10060000607A88B1012828D1E07A0A26E0B306286A
:1006100005D0042821D1216A09B12046884784F8F1
:10062000335084F8305039E0A07AC0F3810100F0F3
:100630000300814211D194F83300401CC1B2042060
:1006400084F83310642904D2E07A022816D0E572C7
:1006500014E003D1E072E16971B970BD0ED994F86C
:100660003010491CC9B284F83010642906D384F8CC
:100670003050E072E16909B12046884794F83300B0
:10068000FF28EAD1652000E002E084F8330070BD65
:10069000E16809B12046884784F833506672E672F3
:1006A00070BD0000054810B5046803E02046FFF760
:1006B0007CFF646B002CF9D110BD00009C00002071
:1006C00010B5054CE16900B101208847A169BDE87A
:1006D0001040002008470000001A002010B5054C0B
:1006E000216900B101208847A169BDE810400020C0
:1006F00008470000001A002010B5054CE16900B160
:10070000012088476169BDE81040002008470000CB
:10071000001A002010B5054CA16900B101208847DE
:100720002169BDE81040002008470000001A0020A1
:10073000704700000C4808B50A4901610B49416146
:100740000B4981610B49C1610B491424C0F8201089
:1007500001F014F8009000F089FF0098204400F0A8
:10076000EFFFF5E701210008001A00201921000819
:1007700031210008492100086121000810B5054C0D
:10078000216A00B1012088476169BDE8104000205E
:1007900008470000001A002010B5054C216900B17F
:1007A00001208847E169BDE81040002008470000AB
:1007B000001A002072B6FEE710B5054C216A00B1A0
:1007C00001208847A169BDE81040002008470000CB
:1007D000001A002010B5054CE16900B101208847DE
:1007E0002169BDE81040002008470000001A0020E1
:1007F00010B5054C216A00B101208847E169BDE8C8
:100800001040002008470000001A002010B5054CD9
:10081000216A00B1012088472169BDE8104000200D
:1008200008470000001A002008B5142400F0A6FFB5
:100830000090204400F084FFF8E700002DE9F84F15
:10084000DFF89C910024A9F1040B23460F2709F13E
:10085000040AABF1040EBBE00125A5402A40AA42E0
:1008600076D1DFF880C14E68A6EB0C0866452BD028
:100870000DDC032E34D005DC36B3012E19D0022E48
:100880002FD11BE0112E16D0122E2AD119E0B8F567
:10089000881F19D006DCB8F5803F15D0B8F5801F49
:1008A0001FD111E0B8F5001F0ED0B8F5041F18D104
:1008B0000AE0CB6815E0CB681B1D12E0CB6808335B
:1008C0000FE0CB680C330CE08B682BB1012B4FF0A1
:1008D000080303D0456104E0042302E0056100E061
:1008E0000023FF2A01D8064601E000F104064FEA82
:1008F000840501D9A5F12005D6F8008007FA05FC8A
:1009000028EA0C0803FA05F548EA0508C6F800804D
:100910004D68ED005BD5344DAE6946F00106AE6121
:10092000AD6924F0030605F0010500952F4D06EB97
:10093000050CDCF80850A607360F07FA06F825EA7A
:100940000805DFF8AC80404503D14FF0000810E007
:100950003DE0DFF8A080404502D14FF0010808E0FB
:10096000DFF89480404502D14FF0020801E04FF0DB
:10097000030808FA06F848EA0508CCF808804D682C
:10098000D9F80060ED024D4601D5164300E09643CC
:100990002E604D68DAF80060AD02554601D5164369
:1009A00000E096432E604D68DBF80060AD035D46C5
:1009B00001D5164300E096432E604D68DEF80060D6
:1009C000ED03754601D5164300E096432E60641C86
:1009D0000A6832FA04F57FF43FAFBDE8F88F0000F3
:1009E0000804014000001110001002400000014006
:1009F00000080140000C01400010014080680840E0
:100A000000D0012070470AB1016170470904FBE77B
:100A1000014880687047000010000020024881688B
:100A2000027811448160704710000020074810B51B
:100A3000016841F010010160032000F06DF80F2003
:100A400000F006F800F024F8002010BD002002405D
:100A500070B50D4D04464FF47A712878B1FBF0F073
:100A60000A490968B1FBF0F000F0B4FA48B9102C5B
:100A700007D200222146501E00F02EF800206C60A4
:100A800070BD012070BD0000100000201C0000207F
:100A90000F4808B5816941F001018161816901F068
:100AA00001010091C16941F08051C161C06900221A
:100AB00000F0805000900F21901E00F00DF80548C6
:100AC000416821F0E06141F08061416008BD0000B3
:100AD0000010024000000140F0B40E4B1B680C46B1
:100AE000C3F30223C3F10705042D00D90425191D02
:100AF000072901D2002300E0DB1E012606FA05F1DA
:100B0000491E214099409E40761E16403143F0BC5C
:100B100000F045BB0CED00E0064900F00702086854
:100B20004FF6FF03184040EA0220034A10430860D2
:100B3000704700000CED00E00000FA052DE9F047D9
:100B40000F46050061D0434E306800F00700B84200
:100B500009D2306820F0070038433060306800F078
:100B60000700B84251D128683B4C810712D5400795
:100B700003D5606840F4E06060602878000703D522
:100B8000606840F4605060606068A96820F0F00020
:100B9000084360602878C00728D06868012810D012
:100BA0002168022810D0890700292EDA616821F017
:100BB000030101436160FFF72BFF804641F2883952
:100BC0000DE021688903EFE78901EDE7FFF720FFDA
:100BD000A0EB0801494502D90320BDE8F087606811
:100BE000696800F00C00B0EB810FEFD1306800F0C5
:100BF0000700B8420BD9306820F007003843306056
:100C0000306800F00700B84201D00120E5E72878FD
:100C1000400705D56068E96820F4E060084360603B
:100C20002878000706D56068296920F4605040EAFA
:100C3000C100606000F018F86168084AC1F3031150
:100C4000515CC8400649086006480068FFF700FF8D
:100C50000020C2E70020024000100240EA300008F5
:100C60001C000020140000200E4A51680E4801F0BC
:100C70000C03042B11D0082B0FD10C48C1F3834374
:100C8000C903C05C0AD55168084AC1F34041921EAD
:100C9000515C054A5043B0FBF1F0704704494843AA
:100CA000704700000010024000127A00DA3000089D
:100CB00000093D002DE9F84F040070D02078C04DA8
:100CC000C00749D06868C0F38100012807D0686870
:100CD000C0F38100022809D16868C00306D52868DE
:100CE000800339D560680028E7D035E06068B0F54A
:100CF000803F0BD010B1B0F5A02F11D0286820F4A0
:100D000080302860286820F4802002E0286840F4C1
:100D100080302860606890B1FFF77AFE06460AE0EE
:100D2000286840F480202860F0E700BFFFF770FEDD
:100D3000801B642873D828688003F7D50CE0FFF780
:100D400067FE064605E000BFFFF762FE801B6428D1
:100D5000F0D828688003F7D420789A4E80074FF0A7
:100D600001094FF0000839D5686810F00C0F07D062
:100D70006868C0F38100022809D16868C00306D4FE
:100D80002868800714D52069012808D110E020695F
:100D9000B0B1C6F80090FFF73BFE074605E00AE158
:100DA000FFF736FEC01B0228C4D828688007F7D595
:100DB0002868616920F0F80040EAC10028600DE071
:100DC000C6F80080FFF724FE074604E0FFF720FE88
:100DD000C01B022823D828688007F7D42078000792
:100DE0002CD57948A169D9B1C0F80090FFF710FE61
:100DF000074604E0FFF70CFEC01B02280FD8686A04
:100E00008007F7D571484FF4FA510068B0FBF1F054
:100E1000009000BF0098411E0091FAD20EE080E0E1
:100E2000C0F80080FFF7F4FD074604E0FFF7F0FD8F
:100E3000C01B022875D8686A8007F7D4207840075D
:100E400060D5E8690027C00008D4E86940F0805008
:100E5000E861E869012700F0805000905C48016873
:100E6000C90513D40168834641F480710160FFF71E
:100E7000CFFD824606E000BFFFF7CAFDA0EB0A00E7
:100E800064284ED8DBF80000C005F5D5E0680128DD
:100E90000AD008B1052813D0286A20F00100286282
:100EA000286A20F0040002E0286A40F0010028626D
:100EB000E06841F2883B98B1FFF7AAFD82460BE05B
:100EC000286A40F004002862EEE700BFFFF7A0FDAB
:100ED000A0EB0A0159455AD8286A8007F6D50CE0DC
:100EE000FFF796FD824605E0FFF792FDA0EB0A01B1
:100EF00059454CD8286A8007F6D41FB1E86920F01C
:100F00008050E861E06988B36968C1F38101022912
:100F100044D00228C6F8608004D0FFF779FD04466B
:100F200038E034E0FFF774FD074604E0FFF770FD9A
:100F3000C01B02282BD828688001F7D4206AB0F59E
:100F4000803F05D16868A16820F4003008436860DC
:100F5000D4E908010843696821F474110843686002
:100F6000C6F86090FFF754FD044606E025E000BF98
:100F7000FFF74EFD001B022809D828688001F7D52D
:100F80001BE000BFFFF744FD001B022802D903202D
:100F9000BDE8F88F28688001F4D40EE00128F7D06E
:100FA0006868226A00F48031914204D1616A00F4D9
:100FB0007010884201D00120EAE70020E8E7000035
:100FC0000010024000004242800442421C00002007
:100FD0000070004010B5401EB0F1807F01D30120A9
:100FE00010BD4FF0E02460610F21601700F0D7F8CA
:100FF0000020A06107202061002010BDFEE7000056
:10100000094A0A490AA0FFF79DFA0848094A817A65
:1010100021F0030181720021FFF781FAFFF742FB03
:10102000142000F073FBF9E7D9160008241A0020F9
:10103000737730002911000810B50E4A00210E48C0
:1010400000F0ECFB0D4C0B4A0021206024320C48D0
:1010500000F0E4FB074A606048320021094800F0D4
:10106000DDFB044AA0606C320021074800F0D6FB8B
:10107000E06010BD483000082B110008000000207F
:1010800035070008290800080110000870B586B06F
:10109000002420480094019402940394816941F053
:1010A00008018161816901F008010491816941F0C1
:1010B000040181618069184E00F004000490002250
:1010C000F8213046FFF79FFC02250320CDE90005FB
:1010D000694630460395FFF7B1FBA803CDE900044C
:1010E00069460E480294FFF7A9FBF820009001AA78
:1010F000012082E8310069463046FFF79FFB08482F
:10110000416821F0C00141F0E06141F040014160DF
:1011100006B070BD00100240000C01400008014004
:1011200000000140FEE7FEE77047012000F0EEFA04
:10113000FBE710B5FFF772FC01F0C8FD012803D0F2
:10114000BDE8104001F0F8BA10BD10B590B02821EC
:101150006846FFF7D4F814210AA8FFF7D0F8022058
:101160000090012004901020002405900794684608
:10117000FFF7A0FD08B172B6FEE70F20CDE90A0423
:101180000C940D9400210AA80E94FFF7D7FC0028B8
:1011900001D072B6FEE710B010BD7047FEE7090738
:1011A000090E002804DB00F1E02080F800147047ED
:1011B00000F00F0000F1E02080F8141D70470000DF
:1011C00010B5094800F0D8FF0020074A01460C324C
:1011D00002EB0013401C19700828F9D3BDE8104039
:1011E000014800F0E4BF0000A000002010B504009A
:1011F0000AD00B4800F0C0FF20680178012907D011
:1012000072B6FFF7D7FAFEE772B6FFF7D3FAFEE73A
:10121000001D00F0B1FFBDE81040014800F0C7BF5D
:10122000A000002010B504000AD00B4800F0A4FF75
:1012300020680178012907D072B6FFF7BBFAFEE7F4
:1012400072B6FFF7B7FAFEE700210170BDE8104063
:10125000014800F0ACBF0000A000002010B5040061
:1012600010D0164800F088FF1448002110F10C003F
:1012700000EB011212783AB1491C0829F8D30F4843
:1012800000F095FF002010BD00EB0110012120604F
:1012900001702168091D0CD00020024641F8202071
:1012A000401C0228FAD30A72044800F080FF012093
:1012B00010BD72B6FFF77EFAFEE70000A000002026
:1012C00010B504000AD00B4800F056FF20680178E2
:1012D000012907D072B6FFF76DFAFEE772B6FFF785
:1012E00069FAFEE7001D00F062FFBDE8104001480A
:1012F00000F05DBFA000002010B50A287DD2DFE815
:1013000000F0BBA48D7F664F3C2C18050120FFF731
:10131000CFF80120FFF75EFA0120FFF777FA0120EE
:10132000FFF7EEF80120FFF7D9F90120FFF7F2F9F6
:101330009DE00120FFF7BCF80120FFF74BFA0120E8
:10134000FFF764FA0120FFF7C9F90120FFF7E2F97E
:101350000120FFF721FA012035E00120FFF7A8F86E
:101360000120FFF7CDF80120FFF7B8F90020FFF7C3
:1013700031FA0020FFF74AFA38E00120FFF798F829
:101380000120FFF727FA0120FFF706FA0120FFF7F7
:10139000C1F90120FFF7A2F90120FFF737FA11E0A8
:1013A0000120FFF785F80120FFF714FA0120FFF76D
:1013B0002DFA0120FFF792F90120FFF7ABF9002089
:1013C000FFF7EAF90020BDE81040FFF799B80120C7
:1013D000FFF700FA0120FFF719FA0120FFF790F854
:1013E0000120FFF77BF90020FFF762F80020FFF7EC
:1013F000D3F9BDE81040002000E054E0FFF78AB9BF
:101400000120FFF755F80120FFF77AF80120FFF7D8
:10141000FDF90120FFF762F9012023E00120FFF729
:1014200047F80120FFF76CF80120FFF7EFF90120E2
:10143000FFF7B2F90120FFF76DF90020FFF74EF931
:10144000BDE810400020FFF7C5B90120FFF758F8AC
:101450000120FFF743F90020FFF72AF80020FFF7EB
:10146000D5F90020FFF756F90020FFF7B3F9BDE8E2
:1014700010400020FFF790B90120FFF719F8012074
:10148000FFF7A8F90120FFF787F90120FFF742F9DC
:101490000120FFF723F90120FFF732F8BDE81040E3
:1014A0000020FFF7B3B90020FFF702F80020FFF794
:1014B00091F90020FFF770F90020FFF72BF90020C9
:1014C000FFF70CF90020E7E710B50A287DD2DFE826
:1014D00000F0A48D7FBC664F3C2C18050120FEF760
:1014E000D9FF0120FFF768F90120FFF781F90120FA
:1014F000FEF7F8FF0120FFF7E3F80120FFF7FCF803
:1015000086E00120FEF7C6FF0120FFF755F9012014
:10151000FFF76EF90120FFF7D3F80120FFF7ECF891
:101520000120FFF72BF9012035E00120FEF7B2FF83
:101530000120FEF7D7FF0120FFF7C2F80020FFF7D8
:101540003BF90020FFF754F938E00120FEF7A2FF35
:101550000120FFF731F90120FFF710F90120FFF713
:10156000CBF80120FFF7ACF80120FFF741F911E0BB
:101570000120FEF78FFF0120FFF71EF90120FFF782
:1015800037F90120FFF79CF80120FFF7B5F800209C
:10159000FFF7F4F80020BDE81040FEF7A3BF0120DC
:1015A000FFF70AF90120FFF723F90120FEF79AFF60
:1015B0000120FFF785F80020FEF76CFF0020FFF701
:1015C000DDF8BDE81040002000E03EE0FFF794B8F1
:1015D0000120FEF75FFF0120FEF784FF0120FFF7E7
:1015E00007F90120FFF76CF801200CE00120FEF75D
:1015F00079FF0120FFF764F80020FEF74BFF002081
:10160000FFF7F6F80020FFF777F80020FFF7D4F88F
:10161000BDE810400020FFF7B1B80120FEF73AFF07
:101620000120FFF7C9F80120FFF7A8F80120FFF714
:1016300063F80120FFF744F85FF00100FEF752FF66
:10164000BDE810400020FFF7D3B80020FEF722FFCE
:101650000020FFF7B1F80020FFF790F80020FFF717
:101660004BF80020FFF72CF80020E7E770B5184989
:101670000A220B6893FBF2F494FBF2F593FBF2F071
:1016800002FB154602FB1030642493FBF4F393FB3A
:10169000F2F402FB1432C1E901260E4CC8600125A8
:1016A000216841B1012908D002290AD0032903D1B8
:1016B0001046FFF709FF256070BDFFF71DFE0220F1
:1016C00003E03046FFF700FF0320206070BD0000FC
:1016D000001A00209800002010B54FF40041034884
:1016E000FFF78CF9012800D0002010BD0008014050
:1016F000FFF79CF9FFF729FDFFF7C8FC00F052F84F
:10170000FFF79AFC00F06AF8FEE7000010B5EFF36F
:10171000058149B9EFF3108131B9084909680229F7
:1017200005D1EFF3118111B16FF0050403E000243E
:1017300008B100F081FE204610BD000070000020BE
:1017400038B50546EFF3058048B9EFF3108030B99E
:1017500009480068022805D1EFF3118010B16FF03D
:10176000050407E0002401F0BFFA291A009068463A
:1017700000F088FE204638BD70000020EFF30580A1
:1017800048B9EFF3108030B905480068022804D149
:10179000EFF3118008B101F0ADBA01F0A5BA000075
:1017A00070000020EFF3058058B9EFF3108040B9C6
:1017B00009490868022801D030B109E0EFF311802F
:1017C00030B16FF0050070470120086000207047BD
:1017D0004FF0FF30704700007000002010B5EFF3AD
:1017E000058060B9EFF3108048B90B4908680228FA
:1017F00002D0012806D00BE0EFF3118040B16FF06A
:10180000050010BD0220086000F0C4FE002010BDDD
:101810004FF0FF3010BD000070000020F0B585B023
:101820004FEA01034FF00004EFF305810394A1BBDD
:10183000EFF3108189BB21490968022902D1EFF336
:10184000118151BB48B3802618218DF8104004AD9A
:1018500042B3176807B13D4697691FB139467F1EED
:10186000382F02D21779FF0702D0002005B0F0BD53
:10187000576907B1BE08D2F808C0BCF1000F0DD0FF
:10188000D4685C2C18D312693AB137B18DE80610D0
:101890003246294601F0EFF903900DE0D7685FB9B1
:1018A00012694AB903AACDE90012B2B2294601F081
:1018B000B5F9012800D003940398D7E77000002001
:1018C0002DE9F041134C0F46054666692068001D5E
:1018D00000F082FC681C07D137B12168BDE8F041F7
:1018E0000D48091D00F0C8BC20683544B54245606C
:1018F000216805D2A068BDE8F041091D00F0A4BC34
:101900006068091D00F0A0FC206B854200D22563B1
:10191000BDE8F081200000201C0600202DE9F041E8
:10192000054600F0B5FC2D4C2069401C2061206864
:101930002B4F10B1E06930B32BE0256020690128FE
:1019400027D1002606EB860007EB800000F06EFC36
:10195000761C382EF6D3234800F068FC214814305A
:1019600000F064FC1F48283000F060FC1D483C304B
:1019700000F05CFC1B48503000F058FC19486060D7
:101980001430A06005E02068E96AC06A884200D887
:101990002560E06A401CE0626864E86AA1698842E8
:1019A00000D9A06100EB800007EB8000291D00F04A
:1019B00063FC00F08DFCE06900280CD02068E96A27
:1019C000C06A884207D208494FF080500860BFF3D0
:1019D0004F8FBFF36F8FBDE8F08100002000002023
:1019E0006C010020CC05002004ED00E038B500F0CB
:1019F0004FFC104CA068C8B90F4800F017FC0E4807
:101A0000143000F013FC0C482060143060600A4B66
:101A100000202833009003F1500210210A2000F02A
:101A2000A1FEA06010B105A100F0D0FCBDE83840D7
:101A300000F04EBC5C00002030060020546D725156
:101A40000000000030B4026C0B46002A0BD0C168C5
:101A50001144C1604468A14201D30168C16030BC37
:101A60001846FEF7FFBB30BC70472DE9F041856B8F
:101A7000174604460026026C82B1C7B1E068FEF743
:101A8000F1FBE168206C091AE1602268914202D200
:101A90006168081AE060022F16D017E02068A8B924
:101AA000606801F093F90646002060600EE0A068CF
:101AB000FEF7D8FB216CA0680844A06061688842EA
:101AC00004D32068A06001E005B16D1E6D1CA56304
:101AD0003046BDE8F08110B5044690F8590058B181
:101AE00001280CD002280FD0502080F31188BFF3BA
:101AF0004F8FBFF36F8FFEE7206B00F0FDFB20469A
:101B0000BDE8104000F0F8BB10BD000010484FF4D5
:101B10004061420706D0C01D0D4920F00700411A60
:101B2000C1F540610B4A00230144C2E900030839B2
:101B3000103A21F0070111604B600B600B1AC0E9ED
:101B4000001393604FF000405360D0607047000076
:101B5000000E002084000020144E154CA6F29C4775
:101B60004FF08058DFF84C9012E000BF00F090FB7F
:101B7000F068C568281D00F02FFB2069401E206119
:101B8000E068401EE06000F0A3FB2846FFF7A3FFDB
:101B9000E0680028EAD138680128F9D9C9F800803E
:101BA000BFF34F8FBFF36F8FF2E7000008060020EE
:101BB0002000002004ED00E070B51D46049C51B1EA
:101BC000C4F80020C4E90F010121204600F0FEFD09
:101BD00084F84C5070BD2460F4E72DE9F0470E46C0
:101BE000DDE909841746824691009946089DA522A1
:101BF000206BFEF77CFB6FF00301206B01EB87018C
:101C0000084420F00707780707D0502080F3118898
:101C1000BFF34F8FBFF36F8FFEE72218315C82F85E
:101C20003410315C11B1401C1028F6D3002684F822
:101C30004360382D00D33725E562C4E91356201DD3
:101C400000F0FFFA04F1180000F0FBFA2461C5F17E
:101C500038006462A061666584F858604A4651465F
:101C6000384600F03BFA2060B8F1000F01D0C8F808
:101C70000040BDE8F087000030B5114900E0114692
:101C80000A688242FBD34B685C18844203D14068E7
:101C900018444860084643681C18944209D1084C0F
:101CA000103C2468A24209D052681A4442600A6873
:101CB00012680260814200D0086030BD0460F9E71C
:101CC0008400002070B5002441600B4D00619142FA
:101CD00006D8D11A8269914206D2011D686807E0D0
:101CE0009A4203D2994201D3012403E0011D2868DE
:101CF00000F0AAFA204670BD5C00002010B5044632
:101D000000F0C6FAA06B28B15FF0000400F0E0FA22
:101D1000204610BD0124F9E730B589B0304D55E0BB
:101D20000498002806DADDE90601059A9047049830
:101D300000284BDB069C606910B1201D00F04CFAB6
:101D400002A800F0B9F8024604980A283ED2DFE85B
:101D500000F00505053D263705053D260598A169D6
:101D6000034601442046FFF7ADFF00B3616A2046F9
:101D70008847E069012829D1002000900598A169D1
:101D8000002342181946204601F02AF978B950205C
:101D900080F31188BFF34F8FBFF36F8FFEE7059875
:101DA000A06128B1811813462046FFF78BFF0DE094
:101DB000502080F31188BFF34F8FBFF36F8FFEE782
:101DC00094F82C0010B9204600F096FA002204A9DD
:101DD000A86800F04DFE0028A2D109B030BD000077
:101DE0005C0000202DE9FC410F46054600F016FC82
:101DF00001A800F061F80446019818B101F05EF8FE
:101E0000BDE8FC81224EAFB170680068A8B300271E
:101E1000291B3A46B06800F0EDFA01F04FF80028AF
:101E2000EED11C494FF080500860BFF34F8FBFF3D5
:101E30006F8FE5E7A542EBD801F040F83068274600
:101E4000C068C468201D00F0C7F9E069012810D1FE
:101E5000A0692B4641193A462046FFF733FF40B1AF
:101E600000200346014600902A46204601F0B8F8BB
:101E700020B1616A20468847C2E707E0502080F31E
:101E80001188BFF34F8FBFF36F8FFEE70127BFE7C6
:101E90005C00002004ED00E006484168096829B1B3
:101EA0004168C968C9684968016370474FF0FF31EC
:101EB000FAE700002000002070B5054600F014FF8E
:101EC000064E04463069844203D200F009F801202E
:101ED00000E0002028602046346170BD5C000020D6
:101EE000F8B5194D1FE0C068C4680668201D00F0F1
:101EF00073F9616A20468847E069012813D1A06917
:101F00003044B04206D924616060211D286800F089
:101F10009BF908E000200346014600903246204627
:101F200001F05EF838B1286801680029DBD16968E2
:101F3000C5E90010F8BD502080F31188BFF34F8F22
:101F4000BFF36F8FFEE700005C0000200848406888
:101F5000401C4FF0500080F3118804D0BFF34F8F26
:101F6000BFF36F8FFEE7BFF34F8FBFF36F8FFEE7B7
:101F70008C000020074C2068016841B1C068002136
:101F8000D0F80000FFF72EFFFFF7C6FEF3E70121B0
:101F90000020F7E75C0000202DE9F041044600F046
:101FA00077F994F9455004F1240609E0606A48B1D4
:101FB000304600F04BFF08B100F0B2FA6D1E6DB272
:101FC000002DF3DC4FF0FF3684F8456000F080F917
:101FD00000F05EF994F9445004F1100709E020691B
:101FE00048B1384600F032FF08B100F099FA6D1E92
:101FF0006DB2002DF3DC84F84460BDE8F04100F0E0
:1020000067B900002DE9F0410546002700F006FB06
:10201000314E306808B9FFF779FDF06805424BD1C1
:10202000C5B3083568070ED005F00700C0F10800F9
:102030000544680707D0502080F31188BFF34F8F05
:10204000BFF36F8FFEE72DB37068854234D8224806
:10205000103001460C6801E020460C466168A94238
:1020600002D221680029F7D131688C4224D0076858
:102070002168016060680837411B10290FD9601979
:10208000420708D0502080F31188BFF34F8FBFF371
:102090006F8FFEE710E041606560FFF7EDFD61685E
:1020A0007068401A7060B268904200D2B060F06808
:1020B00001430020C4E9000100F000FF780707D0C9
:1020C000502080F31188BFF34F8FBFF36F8FFEE76F
:1020D0003846BDE8F08100007400002010B5031FF1
:1020E0004FF080741C601B1F21F001011960191F43
:1020F000024B0B60143940380A6010BD4D1F0008B8
:10210000044B08B1012200E0002208211846FEF726
:102110007ABC0000000C0140044B08B1012200E031
:10212000002210211846FEF76EBC0000000C014092
:10213000044B08B1012200E0002220211846FEF7DE
:1021400062BC0000000C0140044B08B1012200E019
:10215000002240211846FEF756BC0000000C01404A
:10216000044B08B1012200E0002280211846FEF74E
:102170004ABC0000000C014010B530B1017A0229C0
:1021800007D372B6FEF716FBFEE772B6FEF712FB38
:10219000FEE75022EFF3118382F31188BFF34F8FD4
:1021A000BFF36F8F8A00491C0172835010BD10B5B8
:1021B00048B1017A491EC9B20172022907D372B629
:1021C000FEF7F8FAFEE772B6FEF7F4FAFEE750F80B
:1021D000210080F3118810BDD0E9013201699A60B5
:1021E000D0E901235A604A68824201D182684A607C
:1021F000002202610868401E0860086870470000FD
:10220000034B036003F15C0008608020106070479E
:1022100048070020044B036003F15C0008604FF4A2
:102220008070106070470000A409002000F10801D0
:102230004FF0FF32C0E90112C1600161002101606D
:10224000704700210161704730B50B685A1C02D0FD
:1022500000F1080202E0026904E0224654682568A1
:102260009D42FAD953684B6099608A605160086159
:102270000168491C016030BD42684A6093688B6008
:1022800093685960916008610168491C016070475A
:10229000502080F31188BFF34F8FBFF36F8F0A492F
:1022A0004868401C486001280CD10848006810F0BC
:1022B000FF0F07D0502080F31188BFF34F8FBFF37B
:1022C0006F8FFEE7704700008C00002004ED00E0F7
:1022D0000849486828B1401E486001D180F3118840
:1022E0007047502080F31188BFF34F8FBFF36F8F7B
:1022F000FEE700008C00002070B5002827D0144DA8
:10230000A0F108046168E868014207D1502080F319
:102310001188BFF34F8FBFF36F8FFEE722683AB18A
:10232000502080F31188BFF34F8FBFF36F8FFEE70C
:102330008143616000F072F9606869680844686010
:102340002046FFF799FCBDE8704000F0B7BD70BDB6
:10235000740000204FF0E0200021016181610549F7
:102360004FF47A720968B1FBF2F1491E416107210D
:10237000016170471C00002010B5FDF74FFF1149A7
:1023800010280ED300F1E02090F8F0030A78904274
:1023900007D2502080F31188BFF34F8FBFF36F8FA8
:1023A000FEE709480068896800F4E060884207D9C0
:1023B000502080F31188BFF34F8FBFF36F8FFEE77C
:1023C00010BD00008C0000200CED00E010B5084BA3
:1023D000002200BF53F832401CB1521C082AF9D326
:1023E00010BD43F8321003EBC201486010BD00007D
:1023F0002C01002070B515460E460446FFF748FF35
:1024000094F944100020491C01D184F8440094F947
:102410004510491C01D184F84500FFF759FFA06B16
:1024200028B92A46314604F1240000F097F82046E6
:10243000BDE87040FFF7B0BD10B5020014D00F48E2
:10244000806B38B1502080F31188BFF34F8FBFF3FA
:102450006F8FFEE700F0E2F800211046FFF730FA38
:1024600000F02CFD002807D105494FF0805008608E
:10247000BFF34F8FBFF36F8F10BD0000200000200F
:1024800004ED00E070B50D4604000BD095B11E4A76
:10249000906BB8B1502080F31188BFF34F8FBFF31A
:1024A0006F8FFEE7502080F31188BFF34F8FBFF38B
:1024B0006F8FFEE7502080F31188BFF34F8FBFF37B
:1024C0006F8FFEE700F0AAF852692368591993420A
:1024D00004D98B420AD9914202D807E08B42FAD93B
:1024E000881A21600021FFF7EBF900E0216000F07D
:1024F000E5FC002807D105494FF080500860BFF384
:102500004F8FBFF36F8F70BD2000002004ED00E0FF
:1025100002498A6A026049694160704720000020D0
:1025200001490120486270472000002010B50C4688
:1025300050B1094909681831FFF786FE2046BDE809
:1025400010400121FFF7BCB9502080F31188BFF380
:102550004F8FBFF36F8FFEE72000002070B5144649
:102560000D4668B10A4909681831FFF785FE0CB1BC
:102570004FF0FF3521462846BDE87040FFF7A0B96F
:10258000502080F31188BFF34F8FBFF36F8FFEE7AA
:102590002000002030B587B00024039405AA04A9C8
:1025A00003A80494FFF72CFEDDE903010094CDE9B4
:1025B0000110002315A11748059A00F05CFB164D89
:1025C000002868631FD000F0DBFC012809D0401C04
:1025D00019D1502080F31188BFF34F8FBFF36F8F55
:1025E000FEE7502080F31188BFF34F8FBFF36F8F4A
:1025F0004FF0FF3028630120E8616C6107B0BDE84F
:10260000304000F045B807B030BD000049444C45AB
:1026100000000000591B0008200000200248816BC8
:10262000491C81637047000020000020164810B547
:10263000816B11B10121416210BD002141628169AC
:10264000124A01E0B9B1491E01EB810352F823306F
:10265000002BF7D001EB810302EB830202F10804A7
:1026600053685B685360A34201D15B685360DA68CA
:102670000260816110BD502080F31188BFF34F8F3D
:10268000BFF36F8FFEE70000200000206C010020E8
:102690001CB5264908780190FF20087008788DF84D
:1026A00000009DF800009DF8002000F0F00090422E
:1026B00007D0502080F31188BFF34F8FBFF36F8F87
:1026C000FEE79DF800001A4B00F05000187007203C
:1026D000986005E09DF8002052008DF80020401E13
:1026E0009DF800201206F5D49860032807D05020EA
:1026F00080F31188BFF34F8FBFF36F8FFEE74FF466
:1027000040709860019808700A48016841F47001AF
:102710000160016841F070410160FFF71BFE00207D
:102720005860FDF745FD00201CBD000000E400E0FE
:102730008C00002020ED00E010B5502080F31188BF
:10274000BFF34F8FBFF36F8F00F0DCFA18B104496D
:102750004FF080500860002080F3118810BD000009
:1027600004ED00E038B5049D18B153B1CAB181B190
:1027700020E0502080F31188BFF34F8FBFF36F8F9D
:10278000FEE7502080F31188BFF34F8FBFF36F8FA8
:10279000FEE7502080F31188BFF34F8FBFF36F8F98
:1027A000FEE739B1502080F31188BFF34F8FBFF39C
:1027B0006F8FFEE750241C46012384F846302B46D9
:1027C0000094FFF7F9F9204638BD000070B50D46BA
:1027D000040025D0FFF75CFDD4E90F20216802FB3F
:1027E000001161600021A1632168A1600A46D4E95B
:1027F0000F01401E00FB0121E16021464FF0FF3038
:1028000001F8440F487004F110008DB1FFF70EFD80
:1028100004F12400FFF70AFDFFF75AFD012070BD07
:10282000502080F31188BFF34F8FBFF36F8FFEE707
:1028300021690029F0D000F009FB0028ECD0044900
:102840004FF080500860BFF34F8FBFF36F8FE3E707
:1028500004ED00E02DE9FF4782B01D468A464FF0A7
:102860000008040003D0BAF1000F08D011E0502096
:1028700080F31188BFF34F8FBFF36F8FFEE7206C9B
:1028800038B1502080F31188BFF34F8FBFF36F8FA3
:10289000FEE7022D0AD1E06B012807D0502080F31B
:1028A0001188BFF34F8FBFF36F8FFEE700F00EFA72
:1028B0003F4F4FF000094FF0805648B9049838B1A7
:1028C000502080F31188BFF34F8FBFF36F8FFEE767
:1028D000FFF7DEFCA06BE16B884207D3022D05D029
:1028E0000498D0B1B8F1000F1AD01EE02A46514624
:1028F0002046FFF7BAF8616A19B104F1240000F02C
:10290000A5FA20B13E60BFF34F8FBFF36F8FFFF783
:10291000DFFC012006B0BDE8F087FFF7D9FC22E01C
:102920006846FFF7F5FD4FF00108FFF7D1FCFFF710
:1029300075FEFFF7ADFC94F94400401C01D184F80A
:10294000449094F94500401C01D184F84590FFF76C
:10295000BFFC04A9684600F027F930B12046FFF714
:102960001BFB00F0ABFA0020D4E7FFF791FCA06B53
:10297000E16B884213D1FFF7ABFC04F1100004991E
:10298000FFF7D4FD2046FFF707FB00F097FA002879
:102990009ED13E60BFF34F8FBFF36F8F98E7FFF775
:1029A00097FC2046FFF7F8FA00F088FA90E700005D
:1029B00004ED00E02DE9F0471F46904689460400EB
:1029C00003D0B9F1000F08D011E0502080F3118836
:1029D000BFF34F8FBFF36F8FFEE7206C38B15020ED
:1029E00080F31188BFF34F8FBFF36F8FFEE7022F85
:1029F0000AD1E06B012807D0502080F31188BFF383
:102A00004F8FBFF36F8FFEE7FFF7B6FC5020EFF359
:102A1000118680F31188BFF34F8FBFF36F8FA06BC8
:102A2000E16B884206D3022F04D0002086F3118880
:102A3000BDE8F08794F945503A4649462046FFF7ED
:102A400014F8681C04D06D1C84F845500120EDE793
:102A5000606A0028FAD004F1240000F0F7F9002899
:102A6000F4D0B8F1000FF1D00121C8F80010EDE763
:102A70002DE9F747002683B08A46040003D0BAF157
:102A8000000F08D011E0502080F31188BFF34F8F62
:102A9000BFF36F8FFEE7206C38B1502080F31188B0
:102AA000BFF34F8FBFF36F8FFEE700F00FF9DFF832
:102AB000F4804FF000094FF0805748B9059838B1BD
:102AC000502080F31188BFF34F8FBFF36F8FFEE765
:102AD000FFF7DEFBA56BC5B151462046FEF7B2FFFE
:102AE0006D1EA563206950B104F1100000F0AEF92D
:102AF00028B1C8F80070BFF34F8FBFF36F8FFFF797
:102B0000E7FB012006B0BDE8F087059808B11EB1CB
:102B100006E0FFF7DDFB27E06846FFF7F9FC01263A
:102B2000FFF7D6FBFFF77AFDFFF7B2FB94F94400FD
:102B3000401C01D184F8449094F94500401C01D117
:102B400084F84590FFF7C4FB05A9684600F02CF80F
:102B5000002820460AD0FFF71FFA00F0AFF9204600
:102B6000FFF7CCF80028B3D00020CBE7FFF7C6F87A
:102B700090B104F124000599FFF7D8FC2046FFF737
:102B80000BFA00F09BF90028A2D1C8F80070BFF33F
:102B90004F8FBFF36F8F9BE72046FFF7FDF900F0E3
:102BA0008DF995E704ED00E02DE9F0410C460500B4
:102BB00011D0C4B1FFF76CFB174B5A696E682068DF
:102BC000911B471C17D02F689B6A9F4219D09642D1
:102BD00017D8012410E0502080F31188BFF34F8FE5
:102BE000BFF36F8FFEE7502080F31188BFF34F8F44
:102BF000BFF36F8FFEE70024FFF76AFB2046BDE8B6
:102C0000F081884205D9401A20602846FFF780FCF1
:102C1000F1E700202060DCE7200000202DE9FF5FC5
:102C20008346DDE90E87994616468A469000FFF7EF
:102C3000E9F905001CD05C20FFF7E4F9040014D08A
:102C40000020256384F85900CDE90240CDE90087D2
:102C50004B46324651465846FEF7BFFF2046FEF728
:102C60005DFE012004B0BDE8F09F2846FFF744FB5D
:102C70004FF0FF30F6E7F0B585B0DDE90B640A9D53
:102C8000A6B1DCB15C2700972663022684F8596060
:102C9000002604AFCDE90246CDE90057FEF79DFFBF
:102CA0002046FEF73BFE049805B0F0BD502080F3AF
:102CB0001188BFF34F8FBFF36F8FFEE7502080F373
:102CC0001188BFF34F8FBFF36F8FFEE70548C169CF
:102CD00019B1806B18B100207047012070470220A5
:102CE0007047000020000020014840697047000044
:102CF0002000002010B5FFF73FFB0148406910BDE0
:102D0000200000202DE9F0412E4C0027A06B40B19F
:102D1000206A401C2062606A00B101273846BDE885
:102D2000F0816669761C666113D16068006838B10D
:102D3000502080F31188BFF34F8FBFF36F8FFEE7F2
:102D40006068A1686160A060A06A401CA062FFF793
:102D5000A3F8206BDFF87080864209D360680068B2
:102D600080B16068C068C568686886420DD220631B
:102D70002068C06A00EB800158F821000128CAD9F8
:102D80000127C8E74FF0FF30F1E7281DFFF724FACD
:102D9000A86A18B105F11800FFF71EFAE86AA169E0
:102DA000884200D9A06100EB800108EB8100291D59
:102DB000FFF762FAE86A2168C96A8842CED3012720
:102DC000CCE70000200000206C01002070B504005A
:102DD0004FF0000133D01B4D2868844207D05020AB
:102DE00080F31188BFF34F8FBFF36F8FFEE7206D25
:102DF00038B1401E2065E36CE26A9A421FD040B1B0
:102E00001DE0502080F31188BFF34F8FBFF36F8F09
:102E1000FEE7201DFFF7E0F9E06CE062C0F138004A
:102E2000A061E06AA969884200D9A861064900EB5F
:102E3000800001EB8000211DFFF71EFA01210846EA
:102E400070BD0000200000206C01002070B5C0683B
:102E5000C46854B104F118000646FFF7BDF9144DDB
:102E6000A86B50B13146134815E0502080F311880B
:102E7000BFF34F8FBFF36F8FFEE7201DFFF7ACF955
:102E8000E06AA969884200D9A8610B4900EB80007B
:102E900001EB8000211DFFF7EFF9E06A2968C96A9C
:102EA000884202D90120686270BD002070BD000018
:102EB00020000020F40500206C0100202DE9F047DF
:102EC0002C4D00242746A86B38B1FFF7E1F9A86B19
:102ED000401EA863A86B40B146E0502080F31188E3
:102EE000BFF34F8FBFF36F8FFEE72969224E01209A
:102EF000D1B3A6F5916980463068E0B1F068C46846
:102F000004F11800FFF768F9201DFFF765F9E06A82
:102F1000A969884200D9A86100EB800109EB810012
:102F2000211DFFF7A9F9E06A2968C96A8842E3D33D
:102F3000C5F82480E0E70CB1FEF7AEFF2C6A4CB177
:102F40004FEA0806FFF7DEFE00B16E62641EF9D19B
:102F500000202862686A38B10849012738070860EC
:102F6000BFF34F8FBFF36F8FFFF7B2F93846BDE85D
:102F7000F087000020000020F405002004ED00E0B0
:102F800010B586B0FEF732FD114CA068B8B1002034
:102F90000390049005AA04A903A8FFF73BF9DDE913
:102FA000032102208DE8070000230AA10B48059A9F
:102FB000FFF761FEE06010B106B0012010BD5020A7
:102FC00080F31188BFF34F8FBFF36F8FFEE70000D0
:102FD0005C000020546D722053766300751F00085A
:102FE0002DE9FF411E46134602000A9D4FF00000E6
:102FF00016D0144CA768002F0FD0CDE90013029211
:10300000062917DAFFF762FE02284FF000030FD0FF
:1030100000226946A068FFF71DFC04B0BDE8F081FE
:10302000502080F31188BFF34F8FBFF36F8FFEE7FF
:103030002A46EEE70023324669463846FFF7BAFCD7
:10304000EBE700005C000020FC30000800000000FE
:10305000000000000000000000000000000200006E
:1030600018000000000000000000000010310008FF
:103070000000000000000000000000000000000050
:103080000002000009000000000000000000000035
:1030900008310008000000000000000000000000EF
:1030A0000000000000020000080000000000000016
:1030B00000000000183100080000000000000000BF
:1030C00000000000000000000002000008000000F6
:1030D00000000000000000000102020304050607D2
:1030E00008090A0B0C0D0E0F101000000000000064
:1030F0000000010203040607080900006465666118
:10310000756C745461736B00676561720000000038
:10311000646973706C6179006B65790040310008F7
:1031200000000020A000000028010008E031000895
:10313000A0000020202000004401000885E0FFFFDF
:10314000000000000000000000000000000000007F
:103150000100000010000000000000000024F40046
:10316000000000000000000000000000000000005F
:10317000000000000000000000000000000000004F
:10318000000000000000000000000000000000003F
:10319000000000000000000000000000000000002F
:1031A000000000000000000000000000000000001F
:1031B000000000000000000000000000000000000F
:1031C00000000000000000000000000000000000FF
:1031D000AAAAAAAA00000000000000000000000047
:04000005080000ED02
:00000001FF
