:020000040800F2
:1000000098210020250200081F1E0008DD1B0008A3
:100010001D1E000861060008F52000080000000011
:100020000000000000000000000000008D0100083A
:10003000AB08000800000000D1010008A51E000860
:100040003F0200083F0200083F0200083F0200088C
:100050003F0200083F0200083F0200083F0200087C
:100060003F0200083F0200083F0200087508000830
:100070003F0200083F0200083F0200083F0200085C
:100080003F0200083F0200083F0200083F0200084C
:100090003F0200083F0200083F0200083F0200083C
:1000A0003F0200083F0200083F0200083F0200082C
:1000B0003F0200083F020008000000003F02000865
:1000C0003F02000800000000000000003F0200089E
:1000D000000000003F0200083F020008000000008E
:1000E0003F0200083F0200083F02000800F002F84B
:1000F00000F03CF80AA090E8000C82448344AAF186
:100100000107DA4501D100F031F8AFF2090EBAE883
:100110000F0013F0010F18BFFB1A43F0010318473B
:10012000F845000018460000103A24BF78C878C18E
:10013000FAD8520724BF30C830C144BF04680C60ED
:10014000704700000023002400250026103A28BF35
:1001500078C1FBD8520728BF30C148BF0B60704739
:100160001FB500F0F7F81FBD10B510BD00F058F92D
:100170001146FFF7F5FF02F067FA00F076F903B4D5
:10018000FFF7F2FF03BC00F07FF90000224B196873
:100190000868B0E8F00F80F30988BFF36F8F4FF065
:1001A000000080F311884EF00D0E70470000000033
:1001B00006480068006880F3088862B661B6BFF33D
:1001C0004F8FBFF36F8F00DF00BF00BF08ED00E06F
:1001D000EFF30980BFF36F8F0F4B1A6820E9F00F20
:1001E000106008B54FF0500080F31188BFF34F8FB7
:1001F000BFF36F8F03F0DAF94FF0000080F311883E
:10020000BDE8084019680868B0E8F00F80F3098875
:10021000BFF36F8F704700BF20000020EFF3058011
:10022000704700000948804709480047FEE7FEE79D
:10023000FEE7FEE7FEE7FEE7FEE7FEE7FEE7FEE796
:1002400004480549054A064B70470000351F000861
:10025000ED000008981B002098210020981D002028
:10026000981D0020032A40F2308010F0030C00F0AB
:10027000158011F8013BBCF1020F624498BF11F8E0
:1002800001CB00F8013B38BF11F8013BA2F1040299
:1002900098BF00F801CB38BF00F8013B11F0030311
:1002A00000F06A80083AC0F0088051F8043B083A30
:1002B00051F804CBA0E80810F5E7121D5CBF51F817
:1002C000043B40F8043BAFF30080D20724BF11F891
:1002D000013B11F801CB48BF11F8012B24BF00F8F6
:1002E000013B00F801CB48BF00F8012B704702F03A
:1002F000FF0343EA032242EA024200F071B84FF0E2
:10030000000200B5134694469646203922BFA0E865
:100310000C50A0E80C50B1F12001BFF4F7AF090771
:1003200028BFA0E80C5048BF0CC05DF804EB890062
:1003300028BF40F8042B08BF704748BF20F8022BA5
:1003400011F0804F18BF00F8012B704770477047BD
:100350007047000070B5064C7C44064D7D4403E0B8
:10036000206820448047241DAC42F9D170BD0000B4
:10037000DC430000DC43000010B5203AC0F00B80E5
:10038000B1E81850203AA0E81850B1E81850A0E899
:100390001850BFF4F5AF5FEA027C24BFB1E81850F3
:1003A000A0E8185044BF18C918C0BDE810405FEA63
:1003B000827C24BF51F8043B40F8043B08BF7047DF
:1003C000D20728BF31F8023B48BF11F8012B28BFE4
:1003D00020F8023B48BF00F8012B70474FF00002A5
:1003E0000429C0F0128010F0030C3FF48AAFCCF166
:1003F000040CBCF1020F18BF00F8012BA8BF20F8B5
:10040000022BA1EB0C01FFF77CBF5FEAC17C24BF8C
:1004100000F8012B00F8012B48BF00F8012B7047B2
:10042000754600F02BF8AE4605006946534620F0AD
:100430000700854618B020B5FFF702FFBDE8204051
:100440004FF000064FF000074FF000084FF0000B90
:1004500021F00701AC46ACE8C009ACE8C009ACE843
:10046000C009ACE8C0098D46704710B50446AFF32B
:1004700000802046BDE81040FFF781BE004870476D
:10048000341B00207047000001491820ABBEFEE776
:100490002600020010B5054C616900B101208847B3
:1004A000A169BDE81040002008470000D81A0020CC
:1004B00010B5054C216900B1012088476169BDE88C
:1004C0001040002008470000D81A002070B50446EC
:1004D00000688168C943C90717D1816821F001010B
:1004E000816000F073FE05460AE000BF00F06EFE7A
:1004F000401B022804D920688068C043C00706D08A
:1005000020688068C043C007F0D0002070BDA06A9A
:1005100040F01000A062E06A40F00100E0620120BB
:1005200070BD10B50146406A826A12F0500F05D0C6
:10053000006A026BBDE8104008461047816A41F42A
:100540000071816201688968C1F3424107290CD1B9
:10055000017B51B9816A21F480718162816AC90489
:1005600003D4816A41F00101816200F0D7FA10BD25
:1005700010B5406A816A41F040018162C16A41F070
:100580000401C16200F0CCFA10BD10B5406A00F061
:10059000C6FA10BDF8B500260446009600688168CA
:1005A000C943C9072DD0816841F001018160164817
:1005B00016490068B0FBF1F000E0401E00900028F2
:1005C000FBD100F003FE054616E000BF00F0FEFD83
:1005D000401B022810D920688068C043C0070BD098
:1005E000A06A40F01000A062E06A40F00100E06202
:1005F00084F824600120F8BD20688068C043C007EB
:10060000E4D10020F8BD00001C00002040420F0093
:10061000044B19680A4600E0496B0029FCD142638B
:10062000186070479C00002010B5054CA16900B10E
:10063000012088476169BDE810400020084700009C
:10064000D81A002010B5054C616900B10120884717
:100650002169BDE81040002008470000D81A00209A
:10066000FEE70023002805D0082904D000EB810014
:10067000C2600120704700EB83015B1CDBB2CA60E3
:10068000082BF8D3F5E700002DE9F04116460C00E1
:10069000054624D038212046FFF731FE201D0521D4
:1006A0005FF0000715F8012B00F8012BE2B1491E9D
:1006B000F8D10A206072E0722660A07A20F0030070
:1006C000401CA072B047A17A60F38301A17284F844
:1006D00031702046FFF79CFF0120BDE8F08100202B
:1006E000FBE700BF00F8017B491EFBD1E1E770B5D5
:1006F000044600688047A17A0025C1F38102824246
:100700001CD094F831305B1CDBB284F83130022B02
:1007100014D960F38301A17284F83150607A0A28F9
:1007200001D040B10EE0C1F3810001F00301884225
:1007300008D1657206E00120607203E0824201D1B7
:1007400084F83150607A88B1012828D1E07A0A26ED
:10075000E0B3062805D0042821D1216A09B120463A
:10076000884784F8335084F8305039E0A07AC0F3D9
:10077000810100F00300814211D194F83300401C44
:10078000C1B2042084F83310642904D2E07A02282C
:1007900016D0E57214E003D1E072E16971B970BD61
:1007A0000ED994F83010491CC9B284F8301064296D
:1007B00006D384F83050E072E16909B120468847D9
:1007C00094F83300FF28EAD1652000E002E084F8C5
:1007D000330070BDE16809B12046884784F8335082
:1007E0006672E67270BD0000054810B5046803E04B
:1007F0002046FFF77CFF646B002CF9D110BD000090
:100800009C00002010B5054CE16900B1012088472B
:10081000A169BDE81040002008470000D81A002058
:1008200010B5054C216900B101208847A169BDE8D8
:100830001040002008470000D81A002010B5054CD1
:10084000E16900B1012088476169BDE810400020DE
:1008500008470000D81A002010B5054CA16900B166
:10086000012088472169BDE81040002008470000AA
:10087000D81A0020014800F0AFBA0000780100202B
:1008800030B590F840500124AC40C56B6C600468F2
:1008900063604368102B036803D099600068C260EE
:1008A00030BD9A600068C16030BD7047144D08B516
:1008B00012482861134868611348A8611348E86129
:1008C000134814260027134CC5F8200001F008FF38
:1008D0000090207A01280CD0E068286020699628D2
:1008E00000DD277201F06EFE0098304401F0DAFE60
:1008F000ECE72169491C2161EFE700006530000841
:10090000D81A00207D30000895300008AD3000086E
:10091000C53000082C01002010B5054C216A00B13B
:10092000012088476169BDE81040002008470000A9
:10093000D81A002010B5054C216900B10120884764
:10094000E169BDE81040002008470000D81A0020E7
:1009500072B6FEE710B5054C216A00B10120884748
:10096000A169BDE81040002008470000D81A002007
:1009700010B5054CE16900B1012088472169BDE847
:100980001040002008470000D81A002010B5054C80
:10099000216A00B101208847E169BDE810400020CC
:1009A00008470000D81A002010B5054C216A00B194
:1009B000012088472169BDE8104000200847000059
:1009C000D81A00200421144801F0BEF8082112486A
:1009D00001F0BAF8114D104C6868012808D00228BF
:1009E00008D0032808D0042809D005280AD00FE031
:1009F000642009E0C82007E04FF4967004E04FF44B
:100A0000C87001E04FF4FA70216888632168C863F8
:100A1000142001F02DFEDFE7BC0100202C01002096
:100A2000F8B50024009490F824202546012A12D01D
:100A3000012280F824204A681F23072A0DD2066865
:100A4000776B521E02EB820293409F430B689340E8
:100A50001F43776319E00220F8BD06680D2A0AD209
:100A6000376BD21F02EB820293409F430B68934087
:100A70001F43376309E0F76A0D3A02EB82029340A5
:100A80009F430B6893401F43F7620A680723066879
:100A90000A2A0AD3F7680A3A02EB420293409F43BC
:100AA0008B6893401F43F76008E0376902EB42020E
:100AB00093409F438B6893401F4337610A68102A15
:100AC00001D0112A20D1124B02689A4217D19368A3
:100AD0001B0219D4936843F400039360096810293A
:100AE00012D10C490C4A0968B1FBF2F101EB81010A
:100AF000490000E0491E00910029FBD104E0816A11
:100B000041F020018162012480F824502046F8BD84
:100B1000002401401C00002040420F007047704735
:100B2000704700002DE9F0414FF0000704003D46FA
:100B30007ED0A06A002628B9E66284F824602046A8
:100B400000F07EF82046FFF7C1FCA16AC90600D478
:100B500020B1A06A40F01000A06269E0A16A21F40F
:100B6000885141F00201A1626268E169237B0A4376
:100B700047EA43010A43A1684FF48077B94209D09C
:100B8000012907D05FF0000194F814C0BCF1010FF7
:100B900002D00AE03946F7E7F3B1A36A43F0200335
:100BA000A362E36A43F00103E3622368D3F804C05D
:100BB0002CF4694C4CEA010CC3F804C021688B6822
:100BC000DFF870C003EA0C0313438B60A168B942DD
:100BD0000BD0012909D00CE0DFF85CC0A3690CEB55
:100BE00043330B4343F40061DFE7218A0D05A5F58C
:100BF00080152168CB6A23F470032B43CB622168F4
:100C000089680E4B1940914208D1E662A16A21F031
:100C1000020141F00101A162BDE8F081A06A20F06B
:100C2000020040F01000A062E06A40F00100E062C3
:100C30000120F1E7FDF7E1FF00E0FFFFFE0E1FFFDF
:100C4000F0B585B0002506460095019502950395FF
:100C50000068194988422DD11849886940F400700C
:100C60008861886900F400700490886940F004008D
:100C700088618869802700F0040004900320CDE992
:100C8000007069460E4800F0B7F90F4C0D48C4E9F2
:100C900000058015A560C4E90370C00060612020D4
:100CA000C4E90605204600F041F908B1FFF750FEFF
:100CB0003462666205B0F0BD0024014000100240BD
:100CC0000008014008000240780100202DE9F047AB
:100CD000894604463B4900683B4F0E1D90468842BA
:100CE00001D0B84207D1306810F4702F03D001252D
:100CF0002846BDE8F08794F8240001280CD0012094
:100D000084F824002046FFF745FC05004FF0000062
:100D100004D084F82400EBE70220EAE7A16A40F659
:100D20000162914341F48071A1622168B94218D1F6
:100D3000326812F4702F14D0A16A41F48011A162BC
:100D40003168490505D5A16A21F4005141F480516B
:100D5000A162A16AC9040AD5E16A21F00601E16233
:100D600006E0A26A22F48012A2624968E9E7E06222
:100D700084F82400216A15488862216A1448C862F0
:100D8000216A1448086321686FF002000860206837
:100D9000816841F480718160216843464A464C3144
:100DA000206A00F0F1F820688168C1F34241072908
:100DB000816803D041F48011816099E741F4A0017A
:100DC000FAE7000000240140002801402305000844
:100DD0008B050008710500082DE9F05FC16B0C68F8
:100DE00001680B68D0F840C0042202FA0CF2494DA9
:100DF000DFF824A1494E4A4FDFF828B1DFF828E197
:100E000022422CD05A072AD50A68920603D40A68CF
:100E100022F004020A600168A94201D1042219E00B
:100E2000514501D1402215E0B14202D14FF4806218
:100E300010E0B94202D14FF480420BE0594502D193
:100E40004FF4802206E0714502D14FF4800201E0A8
:100E50004FF080622F4908394A60C16A3BE04FF089
:100E6000020808FA0CF818EA040F4FF000094FF0D6
:100E7000010235D05FEA837832D50B689B0605D432
:100E80000B6823F00A030B6080F821200168A94257
:100E900001D1022219E0514501D1202215E0B142D1
:100EA00002D14FF4007210E0B94202D14FF4005267
:100EB0000BE0594502D14FF4003206E0714502D1F2
:100EC0004FF4001201E04FF00072124908394A60F5
:100ED00080F82090816A00291AD0BDE8F05F0847A9
:100EE000082505FA0CF5254212D01B0710D50B6812
:100EF00023F00E030B6090F84010C36B02FA01F16F
:100F00005960826380F8212080F82090016BE2E72D
:100F1000BDE8F09F080002401C0002403000024083
:100F200044000240580002406C00024030B528B333
:100F300008C8134914221944B1FBF2F18900C163B6
:100F400010498163022141771A6843F6F0718A43A0
:100F5000D0E900142143D0E902452C432143046920
:100F600021434469214384692143114319600021CD
:100F70004163012242770177084630BD012030BD30
:100F8000F8FFFDBF0000024070B5044690F8200055
:100F9000002501280CD0012084F8200094F821605D
:100FA0000020012E06D084F820000225284670BDBE
:100FB000022070BD022684F82160A06320680668C4
:100FC00026F0010606602046FFF75AFCE06A00287A
:100FD0002068016802D041F00E0106E021F0040112
:100FE00001602068016841F00A0101602068016821
:100FF00041F001010160D9E72DE9F84FDFF89C913C
:101000000024A9F1040B23460F2709F1040AABF1D0
:10101000040EBBE00125A5402A40AA4276D1DFF8A4
:1010200080C14E68A6EB0C0866452BD00DDC032E64
:1010300034D005DC36B3012E19D0022E2FD11BE09F
:10104000112E16D0122E2AD119E0B8F5881F19D00A
:1010500006DCB8F5803F15D0B8F5801F1FD111E030
:10106000B8F5001F0ED0B8F5041F18D10AE0CB6800
:1010700015E0CB681B1D12E0CB6808330FE0CB688E
:101080000C330CE08B682BB1012B4FF0080303D01D
:10109000456104E0042302E0056100E00023FF2A2B
:1010A00001D8064601E000F104064FEA840501D9A3
:1010B000A5F12005D6F8008007FA05FC28EA0C08FF
:1010C00003FA05F548EA0508C6F800804D68ED000A
:1010D0005BD5344DAE6946F00106AE61AD6924F0D2
:1010E000030605F0010500952F4D06EB050CDCF815
:1010F0000850A607360F07FA06F825EA0805DFF8B4
:10110000AC80404503D14FF0000810E03DE0DFF82F
:10111000A080404502D14FF0010808E0DFF894803C
:10112000404502D14FF0020801E04FF0030808FAF1
:1011300006F848EA0508CCF808804D68D9F8006040
:10114000ED024D4601D5164300E096432E604D68F2
:10115000DAF80060AD02554601D5164300E096432B
:101160002E604D68DBF80060AD035D4601D5164387
:1011700000E096432E604D68DEF80060ED03754692
:1011800001D5164300E096432E60641C0A6832FACB
:1011900004F57FF43FAFBDE8F88F0000080401407C
:1011A0000000111000100240000001400008014042
:1011B000000C0140001001408068084000D0012070
:1011C00070470AB1016170470904FBE70148806874
:1011D0007047000010000020024881680278114426
:1011E0008160704710000020074810B5016841F089
:1011F00010010160032000F07BF80F2000F006F8DA
:1012000000F024F8002010BD0020024070B50D4D04
:1012100004464FF47A712878B1FBF0F00A49096866
:10122000B1FBF0F000F038FB48B9102C07D20022D7
:101230002146501E00F03CF800206C6070BD01207B
:1012400070BD0000100000201C0000200F4808B5F1
:10125000816941F001018161816901F00101009121
:10126000C16941F08051C161C069002200F0805025
:1012700000900F21901E00F01BF80548416821F0F6
:10128000E06141F00071416008BD000000100240C3
:1012900000000140002809DB00F01F0201219140FD
:1012A0004009800000F1E020C0F800117047000004
:1012B000F0B40E4B1B680C46C3F30223C3F10705C1
:1012C000042D00D90425191D072901D2002300E0AF
:1012D000DB1E012606FA05F1491E214099409E4079
:1012E000761E16403143F0BC00F005BF0CED00E067
:1012F000064900F0070208684FF6FF03184040EA6D
:101300000220034A10430860704700000CED00E023
:101310000000FA052DE9F84305460078354CC00772
:1013200054D0E0690026C00008D4E06940F0805045
:10133000E061E069012600F0805000902E480168CD
:10134000C90512D40168804641F480710160FFF73D
:101350003DFF074605E000BFFFF738FFC01B6428CC
:1013600023D8D8F80000C005F6D5206A10F44070E4
:1013700021D0A98801F4407181421CD0206A1F4904
:10138000012220F440700A6000220A602062C00737
:1013900011D0FFF71BFF074641F2883808E000BF75
:1013A000FFF714FFC11B414502D90320BDE8F883B4
:1013B000206A8007F4D5206A696820F440700843E9
:1013C00020621EB1E06920F08050E061287880073B
:1013D00005D56068A96820F440400843606028781B
:1013E000C00605D56068E96820F4800008436060A5
:1013F0000020DBE700100240007000404004424241
:101400002DE9F0470F46050061D0434E306800F0EB
:101410000700B84209D2306820F007003843306036
:10142000306800F00700B84251D128683B4C810772
:1014300012D5400703D5606840F4E060606028780A
:10144000000703D5606840F4605060606068A96878
:1014500020F0F000084360602878C00728D0686852
:10146000012810D02168022810D0890700292EDA1F
:10147000616821F0030101436160FFF7A7FE804628
:1014800041F288390DE021688903EFE78901EDE732
:10149000FFF79CFEA0EB0801494502D90320BDE8F7
:1014A000F0876068696800F00C00B0EB810FEFD145
:1014B000306800F00700B8420BD9306820F0070010
:1014C00038433060306800F00700B84201D0012096
:1014D000E5E72878400705D56068E96820F4E06012
:1014E000084360602878000706D56068296920F401
:1014F000605040EAC100606000F018F86168084A76
:10150000C1F30311515CC8400649086006480068F1
:10151000FFF77CFE0020C2E70020024000100240DE
:10152000EA4600081C000020140000200E4A516802
:101530000E4801F00C03042B11D0082B0FD10C48DE
:10154000C1F38343C903C05C0AD55168084AC1F39B
:101550004041921E515C054A5043B0FBF1F0704788
:1015600004494843704700000010024000127A000E
:10157000DA46000800093D002DE9F84F040070D05C
:101580002078C04DC00749D06868C0F381000128A9
:1015900007D06868C0F38100022809D16868C003D9
:1015A00006D52868800339D560680028E7D035E083
:1015B0006068B0F5803F0BD010B1B0F5A02F11D00E
:1015C000286820F480302860286820F4802002E019
:1015D000286840F480302860606890B1FFF7F6FD1D
:1015E00006460AE0286840F480202860F0E700BF43
:1015F000FFF7ECFD801B642873D828688003F7D5BB
:101600000CE0FFF7E3FD064605E000BFFFF7DEFD57
:10161000801B6428F0D828688003F7D420789A4E7D
:1016200080074FF001094FF0000839D5686810F0C5
:101630000C0F07D06868C0F38100022809D16868E0
:10164000C00306D42868800714D52069012808D172
:1016500010E02069B0B1C6F80090FFF7B7FD07466B
:1016600005E00AE1FFF7B2FDC01B0228C4D82868D4
:101670008007F7D52868616920F0F80040EAC100CA
:1016800028600DE0C6F80080FFF7A0FD074604E0E3
:10169000FFF79CFDC01B022823D828688007F7D4D9
:1016A000207800072CD57948A169D9B1C0F80090FD
:1016B000FFF78CFD074604E0FFF788FDC01B0228FA
:1016C0000FD8686A8007F7D571484FF4FA5100685F
:1016D000B0FBF1F0009000BF0098411E0091FAD2DB
:1016E0000EE080E0C0F80080FFF770FD074604E0E0
:1016F000FFF76CFDC01B022875D8686A8007F7D415
:101700002078400760D5E8690027C00008D4E86960
:1017100040F08050E861E869012700F080500090B7
:101720005C480168C90513D40168834641F480719F
:101730000160FFF74BFD824606E000BFFFF746FD64
:10174000A0EB0A0064284ED8DBF80000C005F5D5F0
:10175000E06801280AD008B1052813D0286A20F0D3
:1017600001002862286A20F0040002E0286A40F0A4
:1017700001002862E06841F2883B98B1FFF726FD3E
:1017800082460BE0286A40F004002862EEE700BFC2
:10179000FFF71CFDA0EB0A0159455AD8286A8007BB
:1017A000F6D50CE0FFF712FD824605E0FFF70EFDCF
:1017B000A0EB0A0159454CD8286A8007F6D41FB11E
:1017C000E86920F08050E861E06988B36968C1F396
:1017D0008101022944D00228C6F8608004D0FFF7B6
:1017E000F5FC044638E034E0FFF7F0FC074604E07F
:1017F000FFF7ECFCC01B02282BD828688001F7D427
:10180000206AB0F5803F05D16868A16820F40030F7
:1018100008436860D4E908010843696821F4741139
:1018200008436860C6F86090FFF7D0FC044606E005
:1018300025E000BFFFF7CAFC001B022809D8286872
:101840008001F7D51BE000BFFFF7C0FC001B02289A
:1018500002D90320BDE8F88F28688001F4D40EE097
:101860000128F7D06868226A00F48031914204D1DF
:10187000616A00F47010884201D00120EAE700207C
:10188000E8E70000001002400000424280044242AB
:101890001C0000200070004010B5401EB0F1807F99
:1018A00001D3012010BD4FF0E02460610F216017CB
:1018B00000F021FC0020A06107202061002010BD65
:1018C00010B590F83C20012A22D0012280F83C205B
:1018D000CA688C6822F4407222434C6822F4806209
:1018E00022430C6822F4006222430C6922F48052E5
:1018F00022434C6922F400522243C969002322F496
:1019000080420A4301684A6480F83C30002010BDE0
:10191000022010BD70B590F83C20012A23D001248C
:1019200080F83C40022280F83D2003685A689D6898
:1019300022F070060A6832435A600C4B02689A42E1
:1019400005D0B2F1804F02D0094B9A4204D14968C8
:1019500025F080031943916080F83D40002180F814
:101960003C10084670BD022070BD0000002C0140F4
:101970000004004010B586B0002100910191029151
:1019800003910068174988422AD11748816941F0BC
:1019900008018161816901F008010491816941F0C8
:1019A000040181618069022400F004000490032096
:1019B000CDE9000469460D480394FFF71DFB600262
:1019C000CDE9000469460A480394FFF715FB09486E
:1019D000416821F0C00141F0E06141F04001416007
:1019E00006B010BD002C014000100240000C014068
:1019F000000801400000014070B5044690F83C002A
:101A000000260D4601280FD0012084F83C006AB161
:101A1000042A1DD0082A2FD00C2A3FD001260020EE
:101A200084F83C00304670BD022070BD206800F094
:101A3000BFFA2068816941F00801816120688169ED
:101A400021F004018161206881692A69114311E054
:101A5000206800F0D5FA2068816941F40061816155
:101A60002068816921F480618161206881692A6927
:101A700041EA02218161D2E7206800F0EDFA206896
:101A8000C16941F00801C1612068C16921F0040108
:101A9000C1612068C1692A69114311E0206800F022
:101AA00007FB2068C16941F40061C1612068C16918
:101AB00021F48061C1612068C1692A6941EA02217B
:101AC000C161ACE710B5040003D094F83D0010B13B
:101AD00007E0012010BD002084F83C00204600F003
:101AE0001FF8022084F83D00211D206800F024FA30
:101AF000012084F8460084F83E0084F83F0084F812
:101B0000400084F8410084F8420084F8430084F8DF
:101B1000440084F8450084F83D00002010BD00001A
:101B200008B500680649884208D10648816941F431
:101B300000618161806900F40060009008BD0000D0
:101B4000002C01400010024010B50446022249B1A9
:101B500004290ED0082913D094F84100012816D08A
:101B6000012010BD94F83E000128F9D184F83E20F0
:101B70000FE094F83F000128F2D184F83F2008E0FC
:101B800094F840000128EBD184F8402001E084F86B
:101B900041200122206800F0FDF90E4920688842AA
:101BA00003D1426C42F4004242642068884205D06E
:101BB000B0F1804F02D00849884204D1816801F019
:101BC0000701062903D0016841F0010101600020EE
:101BD00010BD0000002C014000040040FEE70000A2
:101BE000094A0A490AA0FEF74FFD0848094A817AC6
:101BF00021F0030181720021FEF733FDFEF7F4FDB1
:101C0000142000F035FDF9E731260008FC1A002009
:101C1000737730003D3100083EB500241148009430
:101C2000019402940E4984600160012505730475D6
:101C300005614FF460214460C161FEF773FF08B194
:101C4000FEF786FE0720CDE90005694602940548A7
:101C5000FEF7E6FE002801D0FEF77AFE3EBD00004A
:101C60000024014048010020094808B5416941F0BD
:101C7000010141614069002200F00100009005214E
:101C80000B20FFF715FBBDE808400B20FFF702BB58
:101C90000010024010B50E4A00210E4800F070FD01
:101CA0000D4C0B4A0021206024320C4800F068FDE6
:101CB000074A606048320021094800F061FD044A8B
:101CC000A0606C320021074800F05AFDE06010BDB2
:101CD00048460008211E000800000020AD0800084A
:101CE000C5090008E11B000830B585B000241C4878
:101CF0000094019402940394816941F02001816170
:101D0000816901F020010491816941F00401816140
:101D1000816901F004010491816941F00801816148
:101D20008069104D00F0080004900022F821284638
:101D3000FFF747FA4FF40040CDE9000469460A482E
:101D40000294FFF759F9F82000900120CDE9010431
:101D50000220039069462846FFF74EF905B030BDD2
:101D600000100240000C01400008014010B592B084
:101D700000240F941C2168461094FEF7C0FA20211D
:101D800007A8FEF7BCFA2448224901604721C0E9B0
:101D9000011440F2F311C0E9031444618461FFF7B8
:101DA00091FE08B1FEF7D4FD0F940FA91A481094C4
:101DB000FFF7B0FD08B1FEF7CBFD6020CDE90004D0
:101DC00002940394049405940422694612480694EC
:101DD000FFF712FE08B1FEF7BBFD082269460E4868
:101DE000FFF70AFE08B1FEF7B3FD079408940994C3
:101DF0004FF400500A94CDE90B4007A906480E9411
:101E0000FFF75EFD08B1FEF7A3FD0348FFF7B2FD43
:101E100012B010BD002C0140BC010020FEE7FEE71F
:101E2000012219491948FEF751FF174C184D194F57
:101E3000DFF86480DFF86490DFF864A0143C4FF0B2
:101E40006636606902F079FA00222B4602F0EEF85D
:101E500032463B4602F084FA0022434602F080FA02
:101E600002F0B2F8A06102F079FB00224B4602F0CA
:101E7000DDF80022534602F073FA02F02FFAE06018
:101E8000142000F0F5FBDCE74001002048010020B1
:101E9000703EF04066660A40000024400000354075
:101EA0000000594010B5FFF797F901F0CFFE012867
:101EB00003D0BDE8104001F0FFBB10BD30B593B0BA
:101EC00028216846FEF71BFA14210AA8FEF717FA24
:101ED000002501200F9510951195010412958DE8AC
:101EE000230004904FF4E010CDE908100224079479
:101EF0006846FFF741FB08B172B6FEE70AA90F205A
:101F000081E831004FF48060CDE90D0502210AA877
:101F1000FFF776FA08B172B6FEE74FF40040119071
:101F20000F940FA8FFF7F6F9002801D072B6FEE76C
:101F300013B030BD7047000070B50268134B144CED
:101F40004FF08046984203D0B04201D0A04203D166
:101F500022F070054A682A43984203D0B04201D06B
:101F6000A04203D122F44074CA6822434C6922F093
:101F70008002224302608A68C2620A6882629842D2
:101F800001D1096901630121416170BD002C01404B
:101F90000004004010B501F01F030121046A9940BC
:101FA0008C430462016A9A401143016210BD000033
:101FB00030B5036A026A22F0010202624268846953
:101FC00024F073050C682C4323F002058B682B4327
:101FD0000A4DA8420BD123F00805CB6822F44072C9
:101FE0002B434D6923F0040315438A692A43426059
:101FF000846149684163036230BD0000002C0140E8
:1020000030B5026A036A23F01003036243688469EF
:102010000D6824F4E64444EA05248D6822F0200289
:1020200042EA05120B4DA8420ED1CD6822F0800283
:1020300042EA05124D6923F4406343EA85038D6942
:1020400022F0400243EA850343608461496881636A
:10205000026230BD002C014030B5036A026A22F4EE
:10206000807202624268C46923F4007324F073052D
:102070000C682C438D6843EA05230C4DA8420ED111
:10208000CD6823F4006343EA05234D6922F44052EE
:1020900042EA05128D6923F4806342EA0512426028
:1020A000C4614968C163036230BD0000002C014077
:1020B00030B5046A026A22F4805202624268C3693F
:1020C0000D6823F4E64343EA05238D6824F40054A5
:1020D00044EA0534064DA84204D14D6922F48042F9
:1020E00042EA85124260C36149680164046230BDFE
:1020F000002C0140FEE70907090E002804DB00F16F
:10210000E02080F80014704700F00F0000F1E0209C
:1021100080F8141D7047000010B5094800F0DEFF7C
:102120000020074A01460C3202EB0013401C1970D4
:102130000828F9D3BDE81040014800F0EABF0000CC
:10214000A000002010B504000AD00B4800F0C6FF24
:1021500020680178012907D072B6FEF7F9FBFEE787
:1021600072B6FEF7F5FBFEE7001D00F0B7FFBDE815
:102170001040014800F0CDBFA000002010B50400C1
:102180000AD00B4800F0AAFF20680178012907D087
:1021900072B6FEF7DDFBFEE772B6FEF7D9FBFEE78F
:1021A00000210170BDE81040014800F0B2BF0000FE
:1021B000A000002010B5040010D0164800F08EFFDB
:1021C0001448002110F10C0000EB011212783AB112
:1021D000491C0829F8D30F4800F09BFF002010BDD0
:1021E00000EB01100121206001702168091D0CD055
:1021F0000020024641F82020401C0228FAD30A722F
:10220000044800F086FF012010BD72B6FEF7A0FB67
:10221000FEE70000A000002010B504000AD00B4823
:1022200000F05CFF20680178012907D072B6FEF744
:102230008FFBFEE772B6FEF78BFBFEE7001D00F09A
:1022400068FFBDE81040014800F063BFA000002017
:1022500010B50A287DD2DFE800F0BBA48D7F664F61
:102260003C2C18050120FEF723F90120FEF780FB26
:102270000120FEF799FB0120FEF7E4F90120FEF7AB
:10228000CFFA0120FEF7E8FA9DE00120FEF710F9F1
:102290000120FEF76DFB0120FEF786FB0120FEF713
:1022A000BFFA0120FEF7D8FA0120FEF743FB012018
:1022B00035E00120FEF7FCF80120FEF7C3F901200C
:1022C000FEF7AEFA0020FEF753FB0020FEF76CFB92
:1022D00038E00120FEF7ECF80120FEF749FB012071
:1022E000FEF728FB0120FEF7B7FA0120FEF798FA67
:1022F0000120FEF759FB11E00120FEF7D9F801207B
:10230000FEF736FB0120FEF74FFB0120FEF788FAAF
:102310000120FEF7A1FA0020FEF70CFB0020BDE82B
:102320001040FEF78FB90120FEF722FB0120FEF7D7
:102330003BFB0120FEF786F90120FEF771FA002031
:10234000FEF7B6F80020FEF7F5FABDE810400020D1
:1023500000E054E0FEF780BA0120FEF7A9F8012062
:10236000FEF770F90120FEF71FFB0120FEF758FA77
:10237000012023E00120FEF79BF80120FEF762F91F
:102380000120FEF711FB0120FEF7D4FA0120FEF731
:1023900063FA0020FEF744FABDE810400020FEF783
:1023A000E7BA0120FEF74EF90120FEF739FA0020C6
:1023B000FEF77EF80020FEF7F7FA0020FEF74CFA51
:1023C0000020FEF7D5FABDE810400020FEF7B2BAB3
:1023D0000120FEF76DF80120FEF7CAFA0120FEF792
:1023E000A9FA0120FEF738FA0120FEF719FA0120B8
:1023F000FEF728F9BDE810400020FEF7D5BA00200E
:10240000FEF756F80020FEF7B3FA0020FEF792FA26
:102410000020FEF721FA0020FEF702FA0020E7E78D
:1024200010B50A287DD2DFE800F0A48D7FBC664F8E
:102430003C2C18050120FEF72DF80120FEF78AFA42
:102440000120FEF7A3FA0120FEF7EEF80120FEF7C7
:10245000D9F90120FEF7F2F986E00120FEF71AF81B
:102460000120FEF777FA0120FEF790FA0120FEF72F
:10247000C9F90120FEF7E2F90120FEF74DFA01202B
:1024800035E00120FEF706F80120FEF7CDF8012027
:10249000FEF7B8F90020FEF75DFA0020FEF776FAA5
:1024A00038E00120FDF7F6FF0120FEF753FA012086
:1024B000FEF732FA0120FEF7C1F90120FEF7A2F97A
:1024C0000120FEF763FA11E00120FDF7E3FF012090
:1024D000FEF740FA0120FEF759FA0120FEF792F9C3
:1024E0000120FEF7ABF90020FEF716FA0020BDE848
:1024F0001040FEF799B80120FEF72CFA0120FEF7F4
:1025000045FA0120FEF790F80120FEF77BF9002044
:10251000FDF7C0FF0020FEF7FFF9BDE810400020E6
:1025200000E03EE0FEF78AB90120FDF7B3FF01208D
:10253000FEF77AF80120FEF729FA0120FEF762F98A
:1025400001200CE00120FEF76FF80120FEF75AF998
:102550000020FDF79FFF0020FEF718FA0020FEF78D
:102560006DF90020FEF7F6F9BDE810400020FEF7F7
:10257000D3B90120FDF78EFF0120FEF7EBF9012012
:10258000FEF7CAF90120FEF759F90120FEF73AF9E2
:102590005FF00100FEF748F8BDE810400020FEF7AC
:1025A000F5B90020FDF776FF0020FEF7D3F90020F3
:1025B000FEF7B2F90020FEF741F90020FEF722F9FC
:1025C0000020E7E770B518490A220B6893FBF2F484
:1025D00094FBF2F593FBF2F002FB154602FB103080
:1025E000642493FBF4F393FBF2F402FB1432C1E98D
:1025F00001260E4CC8600125216841B1012908D08F
:1026000002290AD0032903D11046FFF709FF2560EC
:1026100070BDFFF71DFE022003E03046FFF700FF0C
:102620000320206070BD0000D81A00209800002010
:1026300010B54FF400410348FEF7BEFD012800D05D
:10264000002010BD00080140FEF7CEFDFFF736FC6C
:10265000FFF74AFBFFF708FBFFF788FBFFF7DCFA01
:1026600000F052F8FFF716FB00F06AF8FEE70000F2
:1026700010B5EFF3058149B9EFF3108131B908497D
:102680000968022905D1EFF3118111B16FF005043A
:1026900003E0002408B100F08FFE204610BD0000CA
:1026A0007000002038B50546EFF3058048B9EFF318
:1026B000108030B909480068022805D1EFF3118075
:1026C00010B16FF0050407E0002401F0CDFA291ADB
:1026D0000090684600F096FE204638BD700000204D
:1026E000EFF3058048B9EFF3108030B90548006872
:1026F000022804D1EFF3118008B101F0BBBA01F058
:10270000B3BA000070000020EFF3058058B9EFF372
:10271000108040B909490868022801D030B109E0A9
:10272000EFF3118030B16FF00500704701200860B1
:10273000002070474FF0FF3070470000700000200D
:1027400010B5EFF3058060B9EFF3108048B90B497D
:102750000868022802D0012806D00BE0EFF31180B0
:1027600040B16FF0050010BD0220086000F0D2FEFD
:10277000002010BD4FF0FF3010BD000070000020A1
:10278000F0B585B04FEA01034FF00004EFF3058187
:102790000394A1BBEFF3108189BB21490968022989
:1027A00002D1EFF3118151BB48B3802618218DF877
:1027B000104004AD42B3176807B13D4697691FB199
:1027C00039467F1E382F02D21779FF0702D000202A
:1027D00005B0F0BD576907B1BE08D2F808C0BCF11A
:1027E000000F0DD0D4685C2C18D312693AB137B100
:1027F0008DE806103246294601F0FDF903900DE000
:10280000D7685FB912694AB903AACDE90012B2B21A
:10281000294601F0C3F9012800D003940398D7E7B3
:10282000700000202DE9F041134C0F460546666903
:102830002068001D00F090FC681C07D137B12168AA
:10284000BDE8F0410D48091D00F0D6BC20683544B4
:10285000B5424560216805D2A068BDE8F041091D78
:1028600000F0B2BC6068091D00F0AEFC206B854230
:1028700000D22563BDE8F08120000020F40600208E
:102880002DE9F041054600F0C3FC2D4C2069401CA9
:10289000206120682B4F10B1E06930B32BE0256038
:1028A0002069012827D1002606EB860007EB80006F
:1028B00000F07CFC761C382EF6D3234800F076FC22
:1028C0002148143000F072FC1F48283000F06EFCE4
:1028D0001D483C3000F06AFC1B48503000F066FC9C
:1028E000194860601430A06005E02068E96AC06A99
:1028F000884200D82560E06A401CE0626864E86AAB
:10290000A169884200D9A06100EB800007EB80003C
:10291000291D00F071FC00F09BFCE06900280CD040
:102920002068E96AC06A884207D208494FF080509F
:102930000860BFF34F8FBFF36F8FBDE8F0810000D9
:102940002000002044020020A406002004ED00E046
:1029500038B500F05DFC104CA068C8B90F4800F015
:1029600025FC0E48143000F021FC0C482060143087
:1029700060600A4B00202833009003F150021021C0
:102980000A2000F0AFFEA06010B105A100F0DEFC4F
:10299000BDE8384000F05CBC5C0000200807002067
:1029A000546D72510000000030B4026C0B46002AD6
:1029B0000BD0C1681144C1604468A14201D30168D1
:1029C000C16030BC1846FDF74DBC30BC70472DE9E6
:1029D000F041856B174604460026026C82B1C7B1F0
:1029E000E068FDF73FFCE168206C091AE1602268AD
:1029F000914202D26168081AE060022F16D017E0F7
:102A00002068A8B9606801F0A1F90646002060605E
:102A10000EE0A068FDF726FC216CA0680844A060C9
:102A20006168884204D32068A06001E005B16D1E92
:102A30006D1CA5633046BDE8F08110B5044690F8E2
:102A4000590058B101280CD002280FD0502080F333
:102A50001188BFF34F8FBFF36F8FFEE7206B00F03D
:102A60000BFC2046BDE8104000F006BC10BD000085
:102A700010484FF44061420706D0C01D0D4920F0B8
:102A80000700411AC1F540610B4A00230144C2E925
:102A900000030839103A21F0070111604B600B6008
:102AA0000B1AC0E9001393604FF000405360D060F0
:102AB00070470000D80E002084000020144E154CF2
:102AC000A6F29C474FF08058DFF84C9012E000BF10
:102AD00000F09EFBF068C568281D00F03DFB2069F2
:102AE000401E2061E068401EE06000F0B1FB284617
:102AF000FFF7A3FFE0680028EAD138680128F9D978
:102B0000C9F80080BFF34F8FBFF36F8FF2E700006B
:102B1000E00600202000002004ED00E070B51D4616
:102B2000049C51B1C4F80020C4E90F0101212046E2
:102B300000F00CFE84F84C5070BD2460F4E72DE9E1
:102B4000F0470E46DDE90984174682469100994612
:102B5000089DA522206BFDF7CAFB6FF00301206BD7
:102B600001EB8701084420F00707780707D05020C1
:102B700080F31188BFF34F8FBFF36F8FFEE72218EA
:102B8000315C82F83410315C11B1401C1028F6D34E
:102B9000002684F84360382D00D33725E562C4E968
:102BA0001356201D00F00DFB04F1180000F009FB86
:102BB0002461C5F138006462A061666584F85860DC
:102BC0004A465146384600F03BFA2060B8F1000F03
:102BD00001D0C8F80040BDE8F087000030B51149C9
:102BE00000E011460A688242FBD34B685C188442BD
:102BF00003D1406818444860084643681C18944252
:102C000009D1084C103C2468A24209D052681A44E9
:102C100042600A6812680260814200D0086030BDDC
:102C20000460F9E78400002070B5002441600B4D7A
:102C30000061914206D8D11A8269914206D2011DE3
:102C4000686807E09A4203D2994201D3012403E065
:102C5000011D286800F0B8FA204670BD5C00002015
:102C600010B5044600F0D4FAA06B28B15FF0000460
:102C700000F0EEFA204610BD0124F9E730B589B026
:102C8000304D55E00498002806DADDE90601059A82
:102C90009047049800284BDB069C606910B1201D0A
:102CA00000F05AFA02A800F0B9F8024604980A287F
:102CB0003ED2DFE800F00505053D263705053D2637
:102CC0000598A169034601442046FFF7ADFF00B314
:102CD000616A20468847E069012829D100200090D8
:102CE0000598A169002342181946204601F038F9D9
:102CF00078B9502080F31188BFF34F8FBFF36F8FE7
:102D0000FEE70598A06128B1811813462046FFF719
:102D10008BFF0DE0502080F31188BFF34F8FBFF37E
:102D20006F8FFEE794F82C0010B9204600F0A4FA4B
:102D3000002204A9A86800F05BFE0028A2D109B017
:102D400030BD00005C0000202DE9FC410F46054627
:102D500000F024FC01A800F061F80446019818B1C5
:102D600001F06CF8BDE8FC81224EAFB170680068DC
:102D7000A8B30027291B3A46B06800F0FBFA01F01F
:102D80005DF80028EED11C494FF080500860BFF379
:102D90004F8FBFF36F8FE5E7A542EBD801F04EF8F8
:102DA00030682746C068C468201D00F0D5F9E06986
:102DB000012810D1A0692B4641193A462046FFF759
:102DC00033FF40B100200346014600902A462046CA
:102DD00001F0C6F820B1616A20468847C2E707E0E3
:102DE000502080F31188BFF34F8FBFF36F8FFEE742
:102DF0000127BFE75C00002004ED00E006484168C1
:102E0000096829B14168C968C968496801637047A0
:102E10004FF0FF31FAE700002000002070B50546B2
:102E200000F022FF064E04463069844203D200F0CF
:102E300009F8012000E0002028602046346170BDC0
:102E40005C000020F8B5194D1FE0C068C468066832
:102E5000201D00F081F9616A20468847E069012859
:102E600013D1A0693044B04206D924616060211DAD
:102E7000286800F0A9F908E0002003460146009008
:102E80003246204601F06CF838B128680168002904
:102E9000DBD16968C5E90010F8BD502080F31188C6
:102EA000BFF34F8FBFF36F8FFEE700005C00002081
:102EB00008484068401C4FF0500080F3118804D04F
:102EC000BFF34F8FBFF36F8FFEE7BFF34F8FBFF39B
:102ED0006F8FFEE78C000020074C2068016841B12D
:102EE000C0680021D0F80000FFF72EFFFFF7C6FEF4
:102EF000F3E701210020F7E75C0000202DE9F04115
:102F0000044600F085F994F9455004F1240609E0DF
:102F1000606A48B1304600F059FF08B100F0C0FACD
:102F20006D1E6DB2002DF3DC4FF0FF3684F8456066
:102F300000F08EF900F06CF994F9445004F1100798
:102F400009E0206948B1384600F040FF08B100F0C0
:102F5000A7FA6D1E6DB2002DF3DC84F84460BDE865
:102F6000F04100F075B900002DE9F0410546002759
:102F700000F014FB314E306808B9FFF779FDF068B6
:102F800005424BD1C5B3083568070ED005F00700E0
:102F9000C0F108000544680707D0502080F311886D
:102FA000BFF34F8FBFF36F8FFEE72DB3706885427D
:102FB00034D82248103001460C6801E020460C4607
:102FC0006168A94202D221680029F7D131688C4298
:102FD00024D007682168016060680837411B102908
:102FE0000FD96019420708D0502080F31188BFF331
:102FF0004F8FBFF36F8FFEE710E041606560FFF712
:10300000EDFD61687068401A7060B268904200D24D
:10301000B060F06801430020C4E9000100F00EFF39
:10302000780707D0502080F31188BFF34F8FBFF38C
:103030006F8FFEE73846BDE8F08100007400002085
:1030400010B5031F4FF080741C601B1F21F001019D
:103050001960191F024B0B60143940380A6010BD0B
:10306000B12E0008044B08B1012200E00022082123
:103070001846FEF7A6B80000000C0140044B08B14A
:10308000012200E0002210211846FEF79AB8000045
:10309000000C0140044B08B1012200E00022202175
:1030A0001846FEF78EB80000000C0140044B08B132
:1030B000012200E0002240211846FEF782B80000FD
:1030C000000C0140044B08B1012200E000228021E5
:1030D0001846FEF776B80000000C014010B530B17C
:1030E000017A022907D372B6FDF732FCFEE772B609
:1030F000FDF72EFCFEE75022EFF3118382F31188D7
:10310000BFF34F8FBFF36F8F8A00491C017283504A
:1031100010BD10B548B1017A491EC9B20172022929
:1031200007D372B6FDF714FCFEE772B6FDF710FC8C
:10313000FEE750F8210080F3118810BD05480022F9
:103140004168491C4160052900DD4260012101728E
:10315000026170472C010020D0E9013201699A60B8
:10316000D0E901235A604A68824201D182684A60EC
:10317000002202610868401E08600868704700006D
:10318000034B036003F15C0008608020106070470F
:1031900020080020044B036003F15C0008604FF43A
:1031A00080701060704700007C0A002000F1080168
:1031B0004FF0FF32C0E90112C160016100210160DE
:1031C000704700210161704730B50B685A1C02D06E
:1031D00000F1080202E0026904E022465468256812
:1031E0009D42FAD953684B6099608A6051600861CA
:1031F0000168491C016030BD42684A6093688B6079
:1032000093685960916008610168491C01607047CA
:10321000502080F31188BFF34F8FBFF36F8F0A499F
:103220004868401C486001280CD10848006810F02C
:10323000FF0F07D0502080F31188BFF34F8FBFF3EB
:103240006F8FFEE7704700008C00002004ED00E067
:103250000849486828B1401E486001D180F31188B0
:103260007047502080F31188BFF34F8FBFF36F8FEB
:10327000FEE700008C00002070B5002827D0144D18
:10328000A0F108046168E868014207D1502080F38A
:103290001188BFF34F8FBFF36F8FFEE722683AB1FB
:1032A000502080F31188BFF34F8FBFF36F8FFEE77D
:1032B0008143616000F072F9606869680844686081
:1032C0002046FFF78BFCBDE8704000F0B7BD70BD35
:1032D000740000204FF0E020002101618161054968
:1032E0004FF47A720968B1FBF2F1491E416107217E
:1032F000016170471C00002010B5FCF78FFF1149D9
:1033000010280ED300F1E02090F8F0030A789042E4
:1033100007D2502080F31188BFF34F8FBFF36F8F18
:10332000FEE709480068896800F4E060884207D930
:10333000502080F31188BFF34F8FBFF36F8FFEE7EC
:1033400010BD00008C0000200CED00E010B5084B13
:10335000002200BF53F832401CB1521C082AF9D396
:1033600010BD43F8321003EBC201486010BD0000ED
:103370000402002070B515460E460446FFF748FFCC
:1033800094F944100020491C01D184F8440094F9B8
:103390004510491C01D184F84500FFF759FFA06B87
:1033A00028B92A46314604F1240000F097F8204657
:1033B000BDE87040FFF7A2BD10B5020014D00F4861
:1033C000806B38B1502080F31188BFF34F8FBFF36B
:1033D0006F8FFEE700F0E2F800211046FFF722FAB7
:1033E00000F02CFD002807D105494FF080500860FF
:1033F000BFF34F8FBFF36F8F10BD00002000002080
:1034000004ED00E070B50D4604000BD095B11E4AE6
:10341000906BB8B1502080F31188BFF34F8FBFF38A
:103420006F8FFEE7502080F31188BFF34F8FBFF3FB
:103430006F8FFEE7502080F31188BFF34F8FBFF3EB
:103440006F8FFEE700F0AAF852692368591993427A
:1034500004D98B420AD9914202D807E08B42FAD9AB
:10346000881A21600021FFF7DDF900E0216000F0FB
:10347000E5FC002807D105494FF080500860BFF3F4
:103480004F8FBFF36F8F70BD2000002004ED00E070
:1034900002498A6A02604969416070472000002041
:1034A00001490120486270472000002010B50C46F9
:1034B00050B1094909681831FFF786FE2046BDE87A
:1034C00010400121FFF7AEB9502080F31188BFF3FF
:1034D0004F8FBFF36F8FFEE72000002070B51446BA
:1034E0000D4668B10A4909681831FFF785FE0CB12D
:1034F0004FF0FF3521462846BDE87040FFF792B9EE
:10350000502080F31188BFF34F8FBFF36F8FFEE71A
:103510002000002030B587B00024039405AA04A938
:1035200003A80494FFF72CFEDDE903010094CDE924
:103530000110002315A11748059A00F05CFB164DF9
:10354000002868631FD000F0DBFC012809D0401C74
:1035500019D1502080F31188BFF34F8FBFF36F8FC5
:10356000FEE7502080F31188BFF34F8FBFF36F8FBA
:103570004FF0FF3028630120E8616C6107B0BDE8BF
:10358000304000F045B807B030BD000049444C451C
:1035900000000000BD2A0008200000200248816BC6
:1035A000491C81637047000020000020164810B5B8
:1035B000816B11B10121416210BD0021416281691D
:1035C000124A01E0B9B1491E01EB810352F82330E0
:1035D000002BF7D001EB810302EB830202F1080418
:1035E00053685B685360A34201D15B685360DA683B
:1035F0000260816110BD502080F31188BFF34F8FAE
:10360000BFF36F8FFEE7000020000020440200207F
:103610001CB5264908780190FF20087008788DF8BD
:1036200000009DF800009DF8002000F0F00090429E
:1036300007D0502080F31188BFF34F8FBFF36F8FF7
:10364000FEE79DF800001A4B00F0500018700720AC
:10365000986005E09DF8002052008DF80020401E83
:103660009DF800201206F5D49860032807D050205A
:1036700080F31188BFF34F8FBFF36F8FFEE74FF4D6
:1036800040709860019808700A48016841F4700120
:103690000160016841F070410160FFF71BFE0020EE
:1036A0005860FCF785FD00201CBD000000E400E030
:1036B0008C00002020ED00E010B5502080F3118830
:1036C000BFF34F8FBFF36F8F00F0DCFA18B10449DE
:1036D0004FF080500860002080F3118810BD00007A
:1036E00004ED00E038B5049D18B153B1CAB181B101
:1036F00020E0502080F31188BFF34F8FBFF36F8F0E
:10370000FEE7502080F31188BFF34F8FBFF36F8F18
:10371000FEE7502080F31188BFF34F8FBFF36F8F08
:10372000FEE739B1502080F31188BFF34F8FBFF30C
:103730006F8FFEE750241C46012384F846302B4649
:103740000094FFF7EBF9204638BD000070B50D4638
:10375000040025D0FFF75CFDD4E90F20216802FBAF
:10376000001161600021A1632168A1600A46D4E9CB
:103770000F01401E00FB0121E16021464FF0FF30A8
:1037800001F8440F487004F110008DB1FFF70EFDF1
:1037900004F12400FFF70AFDFFF75AFD012070BD78
:1037A000502080F31188BFF34F8FBFF36F8FFEE778
:1037B00021690029F0D000F009FB0028ECD0044971
:1037C0004FF080500860BFF34F8FBFF36F8FE3E778
:1037D00004ED00E02DE9FF4782B01D468A464FF018
:1037E0000008040003D0BAF1000F08D011E0502007
:1037F00080F31188BFF34F8FBFF36F8FFEE7206C0C
:1038000038B1502080F31188BFF34F8FBFF36F8F13
:10381000FEE7022D0AD1E06B012807D0502080F38B
:103820001188BFF34F8FBFF36F8FFEE700F00EFAE2
:103830003F4F4FF000094FF0805648B9049838B117
:10384000502080F31188BFF34F8FBFF36F8FFEE7D7
:10385000FFF7DEFCA06BE16B884207D3022D05D099
:103860000498D0B1B8F1000F1AD01EE02A46514694
:103870002046FFF7ACF8616A19B104F1240000F0AA
:10388000A5FA20B13E60BFF34F8FBFF36F8FFFF7F4
:10389000DFFC012006B0BDE8F087FFF7D9FC22E08D
:1038A0006846FFF7F5FD4FF00108FFF7D1FCFFF781
:1038B00075FEFFF7ADFC94F94400401C01D184F87B
:1038C000449094F94500401C01D184F84590FFF7DD
:1038D000BFFC04A9684600F027F930B12046FFF785
:1038E0000DFB00F0ABFA0020D4E7FFF791FCA06BD2
:1038F000E16B884213D1FFF7ABFC04F1100004998F
:10390000FFF7D4FD2046FFF7F9FA00F097FA0028F8
:103910009ED13E60BFF34F8FBFF36F8F98E7FFF7E5
:1039200097FC2046FFF7EAFA00F088FA90E70000DB
:1039300004ED00E02DE9F0471F469046894604005B
:1039400003D0B9F1000F08D011E0502080F31188A6
:10395000BFF34F8FBFF36F8FFEE7206C38B150205D
:1039600080F31188BFF34F8FBFF36F8FFEE7022FF5
:103970000AD1E06B012807D0502080F31188BFF3F3
:103980004F8FBFF36F8FFEE7FFF7B6FC5020EFF3CA
:10399000118680F31188BFF34F8FBFF36F8FA06B39
:1039A000E16B884206D3022F04D0002086F31188F1
:1039B000BDE8F08794F945503A4649462046FFF75E
:1039C00006F8681C04D06D1C84F845500120EDE712
:1039D000606A0028FAD004F1240000F0F7F900280A
:1039E000F4D0B8F1000FF1D00121C8F80010EDE7D4
:1039F0002DE9F747002683B08A46040003D0BAF1C8
:103A0000000F08D011E0502080F31188BFF34F8FD2
:103A1000BFF36F8FFEE7206C38B1502080F3118820
:103A2000BFF34F8FBFF36F8FFEE700F00FF9DFF8A2
:103A3000F4804FF000094FF0805748B9059838B12D
:103A4000502080F31188BFF34F8FBFF36F8FFEE7D5
:103A5000FFF7DEFBA56BC5B151462046FEF7A4FF7C
:103A60006D1EA563206950B104F1100000F0AEF99D
:103A700028B1C8F80070BFF34F8FBFF36F8FFFF707
:103A8000E7FB012006B0BDE8F087059808B11EB13C
:103A900006E0FFF7DDFB27E06846FFF7F9FC0126AB
:103AA000FFF7D6FBFFF77AFDFFF7B2FB94F944006E
:103AB000401C01D184F8449094F94500401C01D188
:103AC00084F84590FFF7C4FB05A9684600F02CF880
:103AD000002820460AD0FFF711FA00F0AFF920467F
:103AE000FFF7BEF80028B3D00020CBE7FFF7B8F807
:103AF00090B104F124000599FFF7D8FC2046FFF7A8
:103B0000FDF900F09BF90028A2D1C8F80070BFF3BE
:103B10004F8FBFF36F8F9BE72046FFF7EFF900F061
:103B20008DF995E704ED00E02DE9F0410C46050024
:103B300011D0C4B1FFF76CFB174B5A696E6820684F
:103B4000911B471C17D02F689B6A9F4219D0964241
:103B500017D8012410E0502080F31188BFF34F8F55
:103B6000BFF36F8FFEE7502080F31188BFF34F8FB4
:103B7000BFF36F8FFEE70024FFF76AFB2046BDE826
:103B8000F081884205D9401A20602846FFF780FC62
:103B9000F1E700202060DCE7200000202DE9FF5F36
:103BA0008346DDE90E87994616468A469000FFF760
:103BB000DBF905001CD05C20FFF7D6F9040014D017
:103BC0000020256384F85900CDE90240CDE9008743
:103BD0004B46324651465846FEF7B1FF2046FEF7A7
:103BE0004FFE012004B0BDE8F09F2846FFF744FBDC
:103BF0004FF0FF30F6E7F0B585B0DDE90B640A9DC4
:103C0000A6B1DCB15C2700972663022684F85960D0
:103C1000002604AFCDE90246CDE90057FEF78FFF3D
:103C20002046FEF72DFE049805B0F0BD502080F32D
:103C30001188BFF34F8FBFF36F8FFEE7502080F3E3
:103C40001188BFF34F8FBFF36F8FFEE70548C1693F
:103C500019B1806B18B10020704701207047022015
:103C600070470000200000200148406970470000B4
:103C70002000002010B5FFF73FFB0148406910BD50
:103C8000200000202DE9F0412E4C0027A06B40B110
:103C9000206A401C2062606A00B101273846BDE8F6
:103CA000F0816669761C666113D16068006838B17E
:103CB000502080F31188BFF34F8FBFF36F8FFEE763
:103CC0006068A1686160A060A06A401CA062FFF704
:103CD00095F8206BDFF87080864209D36068006831
:103CE00080B16068C068C568686886420DD220638C
:103CF0002068C06A00EB800158F821000128CAD969
:103D00000127C8E74FF0FF30F1E7281DFFF724FA3D
:103D1000A86A18B105F11800FFF71EFAE86AA16950
:103D2000884200D9A06100EB800108EB8100291DC9
:103D3000FFF762FAE86A2168C96A8842CED3012790
:103D4000CCE70000200000204402002070B50400F1
:103D50004FF0000133D01B4D2868844207D050201B
:103D600080F31188BFF34F8FBFF36F8FFEE7206D95
:103D700038B1401E2065E36CE26A9A421FD040B120
:103D80001DE0502080F31188BFF34F8FBFF36F8F7A
:103D9000FEE7201DFFF7E0F9E06CE062C0F13800BB
:103DA000A061E06AA969884200D9A861064900EBD0
:103DB000800001EB8000211DFFF71EFA012108465B
:103DC00070BD0000200000204402002070B5C068D3
:103DD000C46854B104F118000646FFF7BDF9144D4C
:103DE000A86B50B13146134815E0502080F311887C
:103DF000BFF34F8FBFF36F8FFEE7201DFFF7ACF9C6
:103E0000E06AA969884200D9A8610B4900EB8000EB
:103E100001EB8000211DFFF7EFF9E06A2968C96A0C
:103E2000884202D90120686270BD002070BD000088
:103E300020000020CC060020440200202DE9F0479D
:103E40002C4D00242746A86B38B1FFF7E1F9A86B89
:103E5000401EA863A86B40B146E0502080F3118853
:103E6000BFF34F8FBFF36F8FFEE72969224E01200A
:103E7000D1B3A6F5916980463068E0B1F068C468B6
:103E800004F11800FFF768F9201DFFF765F9E06AF3
:103E9000A969884200D9A86100EB800109EB810083
:103EA000211DFFF7A9F9E06A2968C96A8842E3D3AE
:103EB000C5F82480E0E70CB1FEF7A0FF2C6A4CB1F6
:103EC0004FEA0806FFF7DEFE00B16E62641EF9D10C
:103ED00000202862686A38B108490127380708605D
:103EE000BFF34F8FBFF36F8FFFF7B2F93846BDE8CE
:103EF000F087000020000020CC06002004ED00E048
:103F000010B586B0FEF724FD114CA068B8B10020B2
:103F10000390049005AA04A903A8FFF73BF9DDE983
:103F2000032102208DE8070000230AA10B48059A0F
:103F3000FFF761FEE06010B106B0012010BD502017
:103F400080F31188BFF34F8FBFF36F8FFEE7000040
:103F50005C000020546D722053766300D92E000857
:103F60002DE9FF411E46134602000A9D4FF0000056
:103F700016D0144CA768002F0FD0CDE90013029281
:103F8000062917DAFFF762FE02284FF000030FD070
:103F900000226946A068FFF71DFC04B0BDE8F0816F
:103FA000502080F31188BFF34F8FBFF36F8FFEE770
:103FB0002A46EEE70023324669463846FFF7BAFC48
:103FC000EBE700005C00002021F00042A2F160520B
:103FD000B2F5801F01F0004328BFD2F17F6C0BD9EE
:103FE0005FEA001C43EAC20242EB507018BF704700
:103FF00028BF20F001007047B2F5801FBCBF1846F3
:1040000070474FEA410C1CF5001F02D2084600F031
:1040100016BB70B500F04EFA00000089FFF7F6BF3E
:104020004FF00040A0F58000704700002DE9C0412E
:1040300030B4DFF8A0C23CEA111418BF3CEA1314F4
:1040400000F0EC8081EA03051CEA111444EAD574FF
:1040500018BF1CEA131500F0C780A4EB05044FF04D
:10406000004545EAC12145EAC32341EA505143EAEC
:10407000525304F17F74994204F500344FEAC02092
:104080004FEAC22208BF904200F09C804FEA1365BD
:104090000FF24016765D4FEA134506FB05F7C7F1B0
:1040A000807706FB07F74FEAD737A7FB036876420E
:1040B000C8F58038A7FB06CE38BFA8F1010807FB7A
:1040C00008E64FF0000EA6FB028CE6FB03CEDCF107
:1040D000000CCEF1004E38BFAEF1010EA6FB0C581D
:1040E0004FF000074FF00005E6FB0E87A1FB08C666
:1040F000A0FB07CE16EB0E0645F10005E1FB0765B8
:1041000015F1E04E7EBFA4F580345FEA46066D41AE
:1041100016F1800745F100054FEA17274FEA0666BA
:1041200047EA0567A6F1DE46B6F1805F4FEA15253E
:104130001FD9384624F0010C05EBC471BCF1FE6FA9
:1041400001EB0C1102D8F0BCBDE8008124425CBF39
:1041500001F5801E9EEAC47F02D4F0BCBDE8008158
:10416000244238D4F0BCA1F1C041BDE8004100F0C8
:10417000EFB94FEAD22242EA43524FEAD323A7FBD8
:1041800002864FEAD02040EA415007FB03661EEA50
:104190000E0F4FEAD12105FB026658BFA6EB005671
:1041A000B6EB00564FEA520E4EEAC37E18EB0E0EE7
:1041B00056EB530EBDD518EB02085E417F1C55F13E
:1041C0000005B6E74FF480154FF000074FF00006EA
:1041D0004FF00008ADE7F0BC4FF0000001F1C04126
:1041E00001F00041BDE8008111EA0C1F0CEA131533
:1041F00000D00CE013EA0C1F00F025804FF0000007
:10420000F0BC81EA030101F00041BDE80081F0BC8F
:10421000BDE8004181EA030100F09AB9F0BCBDE8B5
:10422000004170B500F046F9097EFC3E00F007B889
:1042300081EA03014FF0000001F00041704781EA7C
:10424000030100F085B9F0BCBDE800414FF000006B
:1042500021497047FFFDFBF9F7F5F4F2F0EEEDEBC5
:10426000E9E8E6E4E3E1E0DEDDDBDAD8D7D5D4D374
:10427000D1D0CFCDCCCBCAC8C7C6C5C4C2C1C0BFC0
:10428000BEBDBCBBBAB9B8B7B6B5B4B3B2B1B0AFC6
:10429000AEADACABAAA9A8A8A7A6A5A4A3A3A2A1AA
:1042A000A09F9F9E9D9C9C9B9A9999989797969565
:1042B00095949393929191908F8F8E8E8D8C8C8B01
:1042C0008B8A898988888787868585848483838289
:1042D000828181800000FF070000F87F4FEA4103E0
:1042E0004FEA5353A3F58063D3F11E03C8BFD3F144
:1042F000210C0CDD4FF0004242EAC12242EA50524A
:1043000032FA03FC8CEAE17CACEBE1707047102BD5
:10431000C4BF0020704703F5787CBCF1FF3F04D098
:104320006FF0004282EA2100704770B500F0C2F8D9
:104330004992248000207047F2E7B0FA80F310FA27
:1043400003F10AD0C3F11D0303F580634FEA415026
:104350004FEA035202EBD12170474FF00000704743
:10436000DFF848C170B51CEA111E1EBF1CEA131508
:104370009EEA0C0F95EA0C0F00F06F8081EA0304AF
:1043800023EA4C134EEAD47E21EA4C1141F4801109
:1043900043F48013AE44A1FB024CA0FB0365AEF1D5
:1043A0007F7E361955EB0C05A1FB034C4CF1000345
:1043B000A0FB021C16EB0C06654153F100030942F9
:1043C00018BF46F0010613F4007F0BD14FEA03310A
:1043D0004FEA0530340341EA155140EA16506FF0B8
:1043E00003020AE04FEAC3214FEAC520F40241EA82
:1043F000555140EA56506FF0020202EB2E4201EB9B
:10440000025585EACE710AD05FEA440C18BF24F049
:10441000004450F1000041F1000120EAD47040F264
:10442000FE7C624500D270BDA84214BF4FF08044AC
:104430004FF04044002E08BF0024BEF1806FA8BF9B
:10444000A1F1C041BDE8704080F282804FF00000D1
:1044500001F1C04101F0004170479EEA0C0F0CEAE7
:10446000131518BF95EA0C0F06D04FF0000081EA33
:10447000030E0EF0004170BD00F01CF88900013EF3
:1044800000F007B800F009B84FEA430C5FEA5C5C43
:1044900008D081EA030100F05BB84FEA410C5FEA03
:1044A0005C5CF6D14FF00000014970470000FF0747
:1044B0000000F87F0EF1020E2EF0030E5EF8046B82
:1044C000364205D4012A43EB030515F5001F12D827
:1044D000012841EB010C1CF5001F0CD80ED14FEA4E
:1044E000D17C15F5001F0CEB4C0C0CF1020C08BF35
:1044F0004CEBD37C04E04FF0080C01E04FEAD37C96
:104500000CEB4C0526FA05F606F00706B6F1040C8E
:1045100006D20EEB860CBDE870404CF0010C6047F3
:10452000DFE80CF0090B02024FF000414FF00000F1
:10453000A1F5002170BD19461046012851EB010478
:1045400018BFD4F5001484BF002001F0004170BDF5
:104550000808A0F500114FEA3101704743004FEA07
:10456000D30C4FEA3C0C43401FBF40070CF1605195
:1045700013F0FE4F70471CF0006F03D100200CF0C9
:10458000004170470CF0004343EA507010B540EA18
:10459000CC0000F00EF800BF000000924FEA0001CE
:1045A000FFF7D6BF4FF000414FF00000A1F500210A
:1045B00070470EF1020E2EF0030E5EF8044B2442FB
:1045C00004D44FEA4102B2F17F4F11D84FEA4003C1
:1045D000B3F17F4F0CD80ED14FEAD07CB2F17F4FB0
:1045E0000CEB4C0C0CF1020C08BF4CEBD17C04E042
:1045F0004FF0080C01E04FEAD17C0CEB4C0324FA9D
:1046000003F404F00704B4F1040C06D20EEB840C9E
:10461000BDE810404CF0010C6047DFE80CF00708E3
:1046200002024FF00040A0F5800010BD0846420095
:1046300018BFD2F1807288BF00F0004010BDFF218A
:1046400041EAD050C0057047044700080000000050
:104650000000000000000000000000000002000058
:104660001800000000000000000000000C470008D7
:10467000000000000000000000000000000000003A
:10468000000200000900000000000000000000001F
:10469000FC460008000000000000000000000000D0
:1046A0000000000000020000080000000000000000
:1046B0000000000014470008000000000000000097
:1046C00000000000000000000002000008000000E0
:1046D00000000000000000000102020304050607BC
:1046E00008090A0B0C0D0E0F10100000000000004E
:1046F00000000102030406070809000067656172F3
:1047000000000000706F77657200000064697370CC
:104710006C6179006B6579003C470008000000205F
:10472000A000000028010008DC470008A0000020CD
:10473000F820000044010008E1D9FFFF000000005C
:104740000000000000000000000000000100000068
:1047500010000000000000000024F4000000000031
:104760000000000000000000000000000000000049
:104770000000000000000000000000000000000039
:104780000000000000000000000000000000000029
:104790000000000000000000000000000000000019
:1047A0000000000000000000000000000000000009
:1047B00000000000000000000000000000000000F9
:1047C000000000000000000000000000AAAAAAAA41
:0C47D000000000000000000000000000DD
:04000005080000ED02
:00000001FF
