:020000040800F2
:100000005021002025020008431D0008231B000882
:10001000411D0008A1040008C720000800000000DE
:100020000000000000000000000000008D0100083A
:100030004506000800000000D1010008ED1D000881
:100040003F0200083F0200083F0200083F0200088C
:100050003F0200083F0200083F0200083F0200087C
:100060003F0200083F0200083F0200083F0200086C
:100070003F0200083F0200083F0200083F0200085C
:100080003F0200083F0200083F0200083F0200084C
:100090003F0200083F0200083F0200083F0200083C
:1000A0003F020008951E00083F0200083F020008BA
:1000B0003F0200083F020008000000003F02000865
:1000C0003F02000800000000000000003F0200089E
:1000D000000000003F0200083F020008000000008E
:1000E0003F0200083F0200083F02000800F002F84B
:1000F00000F03CF80AA090E8000C82448344AAF186
:100100000107DA4501D100F031F8AFF2090EBAE883
:100110000F0013F0010F18BFFB1A43F0010318473B
:10012000943A0000B43A0000103A24BF78C878C16D
:10013000FAD8520724BF30C830C144BF04680C60ED
:10014000704700000023002400250026103A28BF35
:1001500078C1FBD8520728BF30C148BF0B60704739
:100160001FB500F0DBF81FBD10B510BD00F0E8F8BA
:100170001146FFF7F5FF02F063F900F006F903B44A
:10018000FFF7F2FF03BC00F00FF90000224B1968E3
:100190000868B0E8F00F80F30988BFF36F8F4FF065
:1001A000000080F311884EF00D0E70470000000033
:1001B00006480068006880F3088862B661B6BFF33D
:1001C0004F8FBFF36F8F00DF00BF00BF08ED00E06F
:1001D000EFF30980BFF36F8F0F4B1A6820E9F00F20
:1001E000106008B54FF0500080F31188BFF34F8FB7
:1001F000BFF36F8F02F088FD4FF0000080F311888D
:10020000BDE8084019680868B0E8F00F80F3098875
:10021000BFF36F8F704700BF20000020EFF3058011
:10022000704700000948804709480047FEE7FEE79D
:10023000FEE7FEE7FEE7FEE7FEE7FEE7FEE7FEE796
:1002400004480549054A064B70470000911E000806
:10025000ED000008501B002050210020501D002000
:10026000501D002010B5203AC0F00B80B1E81850A6
:10027000203AA0E81850B1E81850A0E81850BFF490
:10028000F5AF5FEA027C24BFB1E81850A0E818502F
:1002900044BF18C918C0BDE810405FEA827C24BF83
:1002A00051F8043B40F8043B08BF7047D20728BF11
:1002B00031F8023B48BF11F8012B28BF20F8023B60
:1002C00048BF00F8012B70474FF0000200B51346FD
:1002D00094469646203922BFA0E80C50A0E80C5066
:1002E000B1F12001BFF4F7AF090728BFA0E80C5017
:1002F00048BF0CC05DF804EB890028BF40F8042B10
:1003000008BF704748BF20F8022B11F0804F18BF7C
:1003100000F8012B704770477047704770B5064C66
:100320007C44064D7D4403E0206820448047241D22
:10033000AC42F9D170BD0000B0380000B038000008
:10034000754600F02BF8AE4605006946534620F08E
:100350000700854618B020B5FFF772FFBDE82040C2
:100360004FF000064FF000074FF000084FF0000B71
:1003700021F00701AC46ACE8C009ACE8C009ACE824
:10038000C009ACE8C0098D46704710B50446AFF30C
:1003900000802046BDE81040FFF7F1BE00487047DE
:1003A000F01A00207047000001491820ABBEFEE79C
:1003B0002600020070B5044600688168C943C90779
:1003C00017D1816821F00101816000F0CDFC054664
:1003D0000AE000BF00F0C8FC401B022804D92068D6
:1003E0008068C043C00706D020688068C043C0074B
:1003F000F0D0002070BDA06A40F01000A062E06A5A
:1004000040F00100E062012070BD0000F8B5002658
:100410000446009600688168C943C9072DD08168E9
:1004200041F001018160164816490068B0FBF1F007
:1004300000E0401E00900028FBD100F095FC05462E
:1004400016E000BF00F090FC401B022810D9206885
:100450008068C043C0070BD0A06A40F01000A062C3
:10046000E06A40F00100E06284F824600120F8BDF9
:1004700020688068C043C007E4D10020F8BD0000B8
:100480001C00002040420F00044B19680A4600E09F
:10049000496B0029FCD1426318607047840000203A
:1004A000FEE70023002805D0082904D000EB8100D6
:1004B000C2600120704700EB83015B1CDBB2CA60A5
:1004C000082BF8D3F5E700002DE9F04116460C00A3
:1004D000054624D038212046FFF7F6FE201D0521D1
:1004E0005FF0000715F8012B00F8012BE2B1491E5F
:1004F000F8D10A206072E0722660A07A20F0030032
:10050000401CA072B047A17A60F38301A17284F805
:1005100031702046FFF7B8FF0120BDE8F0810020D0
:10052000FBE700BF00F8017B491EFBD1E1E770B596
:10053000044600688047A17A0025C1F38102824207
:100540001CD094F831305B1CDBB284F83130012BC5
:1005500014D960F38301A17284F83150607A0A28BB
:1005600001D040B10EE0C1F3810001F003018842E7
:1005700008D1657206E00120607203E0824201D179
:1005800084F83150607A88B1012828D1E07A0A26AF
:10059000E0B3062805D0042821D1216A09B12046FC
:1005A000884784F8335084F8305039E0A07AC0F39B
:1005B000810100F00300814211D194F83300401C06
:1005C000C1B2042084F83310642904D2E07A0228EE
:1005D00016D0E57214E003D1E072E16971B970BD23
:1005E0000ED994F83010491CC9B284F8301064292F
:1005F00006D384F83050E072E16909B1204688479B
:1006000094F83300FF28EAD1652000E002E084F886
:10061000330070BDE16809B12046884784F8335043
:100620006672E67270BD0000054810B5046803E00C
:100630002046FFF77CFF646B002CF9D110BD000051
:100640008400002070470000134D1248184C2862A7
:10065000124868621248A8621248E8621248286389
:1006600012484FF416770026E861207A01280BD053
:10067000E06828602069B84200DD267201F0D0FDF4
:10068000052001F0F2FEF0E72069401C206160685F
:10069000EFE70000092A0008841A0020D529000885
:1006A000A12900086D290008192900084D29000812
:1006B0001401002072B6FEE70821164801F0DCF9AB
:1006C0000C21144801F0D8F9134D124C6868012828
:1006D00010D0022811D0032812D0042813D00528E6
:1006E00014D000202168C86321680864142001F038
:1006F000BCFEEBE740F24110F4E740F2F710F1E7FF
:100700004FF42F70EEE740F21930EBE740F2CA30B9
:10071000E8E70000040D002014010020F8B50024D3
:10072000009490F824202546012A12D0012280F856
:1007300024204A681F23072A0DD20668776B521EB1
:1007400002EB820293409F430B6893401F43776301
:1007500019E00220F8BD06680D2A0AD2376BD21FB5
:1007600002EB820293409F430B6893401F43376321
:1007700009E0F76A0D3A02EB820293409F430B684F
:1007800093401F43F7620A68072306680A2A0AD3C0
:10079000F7680A3A02EB420293409F438B6893400A
:1007A0001F43F76008E0376902EB420293409F4322
:1007B0008B6893401F4337610A68102A01D0112AC1
:1007C00020D1124B02689A4217D193681B0219D4A8
:1007D000936843F4000393600968102912D10C490F
:1007E0000C4A0968B1FBF2F101EB8101490000E01C
:1007F000491E00910029FBD104E0816A41F02001EB
:100800008162012480F824502046F8BD0024014074
:100810001C00002040420F00806A70470068C06CD6
:10082000704700002DE9F0414FF0000704003D46FD
:100830007ED0A06A002628B9E66284F824602046AB
:1008400000F07EF82046FFF7B5FDA16AC90600D486
:1008500020B1A06A40F01000A06269E0A16A21F412
:10086000885141F00201A1626268E169237B0A4379
:1008700047EA43010A43A1684FF48077B94209D09F
:10088000012907D05FF0000194F814C0BCF1010FFA
:1008900002D00AE03946F7E7F3B1A36A43F0200338
:1008A000A362E36A43F00103E3622368D3F804C060
:1008B0002CF4694C4CEA010CC3F804C021688B6825
:1008C000DFF870C003EA0C0313438B60A168B942E0
:1008D0000BD0012909D00CE0DFF85CC0A3690CEB58
:1008E00043330B4343F40061DFE7218A0D05A5F58F
:1008F00080152168CB6A23F470032B43CB622168F7
:1009000089680E4B1940914208D1E662A16A21F034
:10091000020141F00101A162BDE8F081A06A20F06E
:10092000020040F01000A062E06A40F00100E062C6
:100930000120F1E7FDF7E1FF00E0FFFFFE0E1FFFE2
:1009400000B585B0002100910191029103910068EA
:100950000E49884218D10E48816941F400718161C5
:10096000816901F400710491816941F004018161A0
:100970008069694600F00400049080200090032004
:100980000190044800F006F905B000BD00240140C4
:1009900000100240000801402DE9F84300270D46F1
:1009A0000446009700F0E0F9804620688168C90598
:1009B00008D5A06A40F02000A06284F824700120CD
:1009C000BDE8F8834168C90503D4C06A10F4700F0C
:1009D0002AD0022000F092FA3B490968B1FBF0F6F8
:1009E0002068036939490B424FEA61014FEAA112BD
:1009F0001FD1C3684FEA611C13EA0C0F19D10369B8
:100A00000B4225D1C068104222D1142023E0681C7B
:100A10000AD02DB100F0A8F9A0EB0800A84203D934
:100A200020680068800725D5206800688007EED51B
:100A30002DE003690B4202D1C168114206D0026960
:100A400023490A4206D1C068084203D1542002E07B
:100A5000292000E0FC204643009816E0681C11D0D5
:100A60002DB100F081F9A0EB0800A8420AD9009846
:100A7000B04207D2A06A40F00400A06284F824705B
:100A800003209DE70098401C0090B042E6D3216807
:100A90006FF012000860A06A40F40070A062206845
:100AA0008068C0F3424007280CD1207B50B9A06A6F
:100AB00020F48070A062A06AC00403D4A06A40F051
:100AC0000100A06200207BE71C0000202449922442
:100AD0004992240070B5044690F8240001280DD0F6
:100AE000012084F824002046FFF790FC02004FF01C
:100AF000000005D084F82400104670BD022070BDAF
:100B0000A16A40F20123994341F48071A1621F4D13
:100B100023681F49AB4218D10E6816F4702F14D009
:100B2000A66A46F48016A6620E68760505D5A66A02
:100B300026F4005646F48056A662A66AF6040AD544
:100B4000E66A26F00606E66206E0A66A26F4801645
:100B5000A6625E68E9E7E06284F824006FF00200B4
:100B6000186020688368C3F34243072B05D1A8426D
:100B700008D1096811F4702F04D0816841F4801104
:100B80008160B9E7816841F4A001F9E700280140DC
:100B9000042401402DE9F84FDFF89C910024A9F1CD
:100BA000040B23460F2709F1040AABF1040EBBE046
:100BB0000125A5402A40AA4276D1DFF880C14E68BF
:100BC000A6EB0C0866452BD00DDC032E34D005DCDB
:100BD00036B3012E19D0022E2FD11BE0112E16D0C4
:100BE000122E2AD119E0B8F5881F19D006DCB8F505
:100BF000803F15D0B8F5801F1FD111E0B8F5001F58
:100C00000ED0B8F5041F18D10AE0CB6815E0CB6808
:100C10001B1D12E0CB6808330FE0CB680C330CE0EF
:100C20008B682BB1012B4FF0080303D0456104E022
:100C3000042302E0056100E00023FF2A01D80646F4
:100C400001E000F104064FEA840501D9A5F1200571
:100C5000D6F8008007FA05FC28EA0C0803FA05F527
:100C600048EA0508C6F800804D68ED005BD5344DB4
:100C7000AE6946F00106AE61AD6924F0030605F0E9
:100C8000010500952F4D06EB050CDCF80850A60772
:100C9000360F07FA06F825EA0805DFF8AC8040456C
:100CA00003D14FF0000810E03DE0DFF8A0804045A0
:100CB00002D14FF0010808E0DFF89480404502D1EE
:100CC0004FF0020801E04FF0030808FA06F848EA7E
:100CD0000508CCF808804D68D9F80060ED024D4653
:100CE00001D5164300E096432E604D68DAF80060A7
:100CF000AD02554601D5164300E096432E604D687F
:100D0000DBF80060AD035D4601D5164300E0964375
:100D10002E604D68DEF80060ED03754601D5164380
:100D200000E096432E60641C0A6832FA04F57FF4F2
:100D30003FAFBDE8F88F000008040140000011102B
:100D4000001002400000014000080140000C01407A
:100D5000001001408068084000D0012070470AB1AF
:100D6000016170470904FBE7014880687047000093
:100D700010000020024881680278114481607047A9
:100D800010000020074810B5016841F01001016013
:100D9000032000F0A1F80F2000F006F800F04AF858
:100DA000002010BD0020024030B505461C4887B029
:100DB000816941F400618161806906A900F40060E5
:100DC000009001A800F0F8F900F016FA1549164A4B
:100DD000B0FBF1F11548491E0260416040F2E73274
:100DE0000021C0E903218160816100F0FDFB040066
:100DF00012D10E4800F03AFC04000DD1192000F089
:100E00003DF8102D07D200222946192000F044F8A1
:100E10000748056000E0012407B0204630BD00000F
:100E20000010024040420F00002C01404C0D0020F9
:100E3000140000200F4808B5816941F0010181616B
:100E4000816901F001010091C16941F08051C161E6
:100E5000C069002200F0805000900F21901E00F029
:100E60001BF80548416821F0E06141F000714160E4
:100E700008BD00000010024000000140002809DB0E
:100E800000F01F02012191404009800000F1E020A4
:100E9000C0F8001170470000F0B40E4B1B680C4600
:100EA000C3F30223C3F10705042D00D90425191D3E
:100EB000072901D2002300E0DB1E012606FA05F116
:100EC000491E214099409E40761E16403143F0BC99
:100ED00001F0FAB80CED00E0064900F007020868DE
:100EE0004FF6FF03184040EA0220034A104308600F
:100EF000704700000CED00E00000FA0510B5014657
:100F00000020234C012922D0022939D010291DD1DB
:100F100061682268D20119D51E48C1F38342C90312
:100F2000805C0AD561681B4AC1F34041921E515C46
:100F3000194AB2FBF1F1484301E01849484361689E
:100F4000490203D440000321B0FBF1F010BD226A36
:100F5000C2F30121012903D1920701D5C80310BDB5
:100F6000022905D1626A920702D549F6404010BDB8
:100F70000329FCD121688903F9D54FF2244010BD23
:100F800000F03AF96168C1F38131491C4900DBE79F
:100F900000100240703B000800127A0000093D007A
:100FA0002DE9F84305460078354CC00754D0E06978
:100FB0000026C00008D4E06940F08050E061E0699C
:100FC000012600F0805000902E480168C90512D417
:100FD0000168804641F480710160FFF7C5FE074655
:100FE00005E000BFFFF7C0FEC01B642823D8D8F877
:100FF0000000C005F6D5206A10F4407021D0A98801
:1010000001F4407181421CD0206A1F49012220F462
:1010100040700A6000220A602062C00711D0FFF70A
:10102000A3FE074641F2883808E000BFFFF79CFEA8
:10103000C11B414502D90320BDE8F883206A80071F
:10104000F4D5206A696820F44070084320621EB11C
:10105000E06920F08050E0612878800705D560685D
:10106000A96820F44040084360602878C00605D590
:101070006068E96820F48000084360600020DBE7D6
:101080000010024000700040400442422DE9F04749
:101090000F46050061D0434E306800F00700B842AB
:1010A00009D2306820F0070038433060306800F023
:1010B0000700B84251D128683B4C810712D5400740
:1010C00003D5606840F4E06060602878000703D5CD
:1010D000606840F4605060606068A96820F0F000CB
:1010E000084360602878C00728D06868012810D0BD
:1010F0002168022810D0890700292EDA616821F0C2
:10110000030101436160FFF72FFE804641F28839F9
:101110000DE021688903EFE78901EDE7FFF724FE81
:10112000A0EB0801494502D90320BDE8F0876068BB
:10113000696800F00C00B0EB810FEFD1306800F06F
:101140000700B8420BD9306820F007003843306000
:10115000306800F00700B84201D00120E5E72878A8
:10116000400705D56068E96820F4E06008436060E6
:101170002878000706D56068296920F4605040EAA5
:10118000C100606000F048F86168084AC1F30311CB
:10119000515CC8400649086006480068FFF704FE35
:1011A0000020C2E70020024000100240803B0008FF
:1011B0001C000020140000200F2202600C4A53681B
:1011C00003F003034360536803F0F0038360536844
:1011D00003F4E063C36052684FF4E06303EAD202B1
:1011E00002610448006800F00700086070470000D2
:1011F0000010024000200240044805490068496888
:10120000044AC1F3C221515CC84070471C00002051
:1012100000100240903B00080E4A51680E4801F051
:101220000C03042B11D0082B0FD10C48C1F38343BE
:10123000C903C05C0AD55168084AC1F34041921EF7
:10124000515C054A5043B0FBF1F0704704494843F4
:10125000704700000010024000127A005E3B000858
:1012600000093D002DE9F84F040070D02078C04DF2
:10127000C00749D06868C0F38100012807D06868BA
:10128000C0F38100022809D16868C00306D5286828
:10129000800339D560680028E7D035E06068B0F594
:1012A000803F0BD010B1B0F5A02F11D0286820F4EA
:1012B00080302860286820F4802002E0286840F40C
:1012C00080302860606890B1FFF74EFD06460AE066
:1012D000286840F480202860F0E700BFFFF744FD55
:1012E000801B642873D828688003F7D50CE0FFF7CB
:1012F0003BFD064605E000BFFFF736FD801B642876
:10130000F0D828688003F7D420789A4E80074FF0F1
:1013100001094FF0000839D5686810F00C0F07D0AC
:101320006868C0F38100022809D16868C00306D448
:101330002868800714D52069012808D110E02069A9
:10134000B0B1C6F80090FFF70FFD074605E00AE1CF
:10135000FFF70AFDC01B0228C4D828688007F7D50C
:101360002868616920F0F80040EAC10028600DE0BB
:10137000C6F80080FFF7F8FC074604E0FFF7F4FC2E
:10138000C01B022823D828688007F7D420780007DC
:101390002CD57948A169D9B1C0F80090FFF7E4FCD9
:1013A000074604E0FFF7E0FCC01B02280FD8686A7C
:1013B0008007F7D571484FF4FA510068B0FBF1F09F
:1013C000009000BF0098411E0091FAD20EE080E02C
:1013D000C0F80080FFF7C8FC074604E0FFF7C4FC34
:1013E000C01B022875D8686A8007F7D420784007A8
:1013F00060D5E8690027C00008D4E86940F0805053
:10140000E861E869012700F0805000905C480168BD
:10141000C90513D40168834641F480710160FFF768
:10142000A3FC824606E000BFFFF79EFCA0EB0A008B
:1014300064284ED8DBF80000C005F5D5E068012827
:101440000AD008B1052813D0286A20F001002862CC
:10145000286A20F0040002E0286A40F001002862B7
:10146000E06841F2883B98B1FFF77EFC82460BE0D2
:10147000286A40F004002862EEE700BFFFF774FC22
:10148000A0EB0A0159455AD8286A8007F6D50CE026
:10149000FFF76AFC824605E0FFF766FCA0EB0A0155
:1014A00059454CD8286A8007F6D41FB1E86920F066
:1014B0008050E861E06988B36968C1F3810102295D
:1014C00044D00228C6F8608004D0FFF74DFC0446E3
:1014D00038E034E0FFF748FC074604E0FFF744FC3F
:1014E000C01B02282BD828688001F7D4206AB0F5E9
:1014F000803F05D16868A16820F400300843686027
:10150000D4E908010843696821F47411084368604C
:10151000C6F86090FFF728FC044606E025E000BF0F
:10152000FFF722FC001B022809D828688001F7D5A4
:101530001BE000BFFFF718FC001B022802D90320A4
:10154000BDE8F88F28688001F4D40EE00128F7D0B8
:101550006868226A00F48031914204D1616A00F423
:101560007010884201D00120EAE70020E8E700007F
:101570000010024000004242800442421C00002051
:10158000007000407047704770B590F83C20012A09
:1015900023D0012480F83C40022280F83D200368DB
:1015A0005A689D6822F070060A6832435A600C4BF4
:1015B00002689A4205D0B2F1804F02D0094B9A429C
:1015C00004D1496825F080031943916080F83D40BB
:1015D000002180F83C10084670BD022070BD00005C
:1015E000002C01400004004010B5040003D094F822
:1015F0003D0010B107E0012010BD002084F83C0040
:10160000204600F01FF8022084F83D00211D2068CC
:1016100000F046FC012084F8460084F83E0084F87F
:101620003F0084F8400084F8410084F8420084F8C8
:10163000430084F8440084F8450084F83D0000200D
:1016400010BD000008B500680649884208D1064868
:10165000C16941F00201C161C06900F0020000905F
:1016600008BD0000000400400010024090F83D104A
:10167000012901D001207047022180F83D10016846
:10168000CA6842F00102CA6000680A49884205D06F
:10169000B0F1804F02D00849884204D1816801F03E
:1016A0000701062903D0016841F001010160002013
:1016B00070470000002C01400004004070B5044653
:1016C00090F83C000025012817D0012684F83C60E2
:1016D000022084F83D002068826822F0770222F41C
:1016E0007F4282600868502838D00DDC20284FD017
:1016F00005DC90B3102811D14AE0022070BD3028DB
:1017000046D040280AD13BE060282FD070280DD069
:10171000B0F5805F03D0B0F5005F12D0012584F8EA
:101720003D60002084F83C00284670BDCB68D1E9BC
:101730000121206800F0EFFB2068816841F077010B
:1017400009E0CB68D1E90121206800F0E4FB2068C2
:10175000816841F480418160E1E719E0CA68496825
:10176000206800F08DFC5021206806E0CA684968B6
:10177000206800F096FC6021206800F0D6FBCEE7E0
:10178000CA684968206800F07BFC40212068F4E7C3
:10179000226801461046F0E7704770B504460068BD
:1017A00001694FF00005C943890715D4C168C943D1
:1017B000890711D4E91E0161012020772068806922
:1017C0008007204602D0FFF7E7FF04E000F0BEF8F4
:1017D000204600F050F9257720680169C943490780
:1017E00017D4C168C943490713D46FF004010161DC
:1017F000022020772068806910F4407F204602D0C4
:10180000FFF7CAFF04E000F0A1F8204600F033F92A
:10181000257720680169C943090716D4C168C943FF
:10182000090712D46FF008010161042020772068B5
:10183000C0698007204602D0FFF7AEFF04E000F049
:1018400085F8204600F017F9257720680169C9431B
:10185000C90617D4C168C943C90613D46FF0100173
:101860000161082020772068C06910F4407F20467D
:1018700002D0FFF791FF04E000F068F8204600F086
:10188000FAF8257720680169C943C90708D1C168FA
:10189000C943C90704D1891E0161204600F036F909
:1018A00020680169C943090609D4C168C94309060A
:1018B00005D46FF0800101612046FFF763FE2068C8
:1018C0000169C943490609D4C168C943490605D419
:1018D0006FF040010161204600F022F920680169A3
:1018E000C94389060BD4C168C943890607D46FF080
:1018F000200101612046BDE87040FFF744BE70BD85
:1019000000B585B00021009101910291039100681A
:101910000B49884211D10B48816941F0080181616E
:101920008069694600F008000490032000900220BE
:10193000019003900448FFF72DF905B000BD0000A9
:101940000004004000100240000C0140704770B5D8
:10195000044690F83C0000260D4601280FD00120D7
:1019600084F83C006AB1042A1DD0082A2FD00C2A22
:101970003FD00126002084F83C00304670BD022094
:1019800070BD206800F0DAFA2068816941F0080132
:1019900081612068816921F0040181612068816989
:1019A0002A69114311E0206800F0F0FA206881698B
:1019B00041F4006181612068816921F48061816165
:1019C000206881692A6941EA02218161D2E72068A1
:1019D00000F008FB2068C16941F00801C16120687E
:1019E000C16921F00401C1612068C1692A691143FC
:1019F00011E0206800F022FB2068C16941F4006119
:101A0000C1612068C16921F48061C1612068C16938
:101A10002A6941EA0221C161ACE710B5040003D094
:101A200094F83D0010B107E0012010BD002084F8BB
:101A30003C00204600F01EF8022084F83D00211DE5
:101A4000206800F02DFA012084F8460084F83E005A
:101A500084F83F0084F8400084F8410084F8420094
:101A600084F8430084F8440084F8450084F83D007D
:101A7000002010BD7047704710B50446022249B1DE
:101A800004290ED0082913D094F84100012816D05B
:101A9000012010BD94F83E000128F9D184F83E20C1
:101AA0000FE094F83F000128F2D184F83F2008E0CD
:101AB00094F840000128EBD184F8402001E084F83C
:101AC00041200122206800F019FA0E49206888425E
:101AD00003D1426C42F4004242642068884205D03F
:101AE000B0F1804F02D00849884204D1816801F0EA
:101AF0000701062903D0016841F0010101600020BF
:101B000010BD0000002C01400004004000680349A3
:101B1000884201D1FFF72EB970470000002C014028
:101B20007047FEE7094A0A490AA0FEF7CDFC0848BB
:101B3000094A817A21F0030181720021FEF7B1FC8C
:101B4000FEF772FD142000F090FCF9E7292400084C
:101B5000B81A0020737730009D2A00083EB5002196
:101B60001148009101910F4A0291026001248160A5
:101B7000047301754FF460220461C2614160FEF795
:101B800051FE08B1FEF796FD0720CDE90004029052
:101B900069460548FEF7C2FD002801D0FEF78AFD20
:101BA0003EBD000000240140D40C002010B59CB0C4
:101BB0001C2216496846FEF755FB0021684600F0D6
:101BC00060FC134C11491C2220601C3107A8FEF751
:101BD00049FB002107A800F054FC0C4960601C225E
:101BE00038310EA8FEF73EFB00210EA800F049FC9C
:101BF0000649A0601C22543115A8FEF733FB0021D2
:101C000015A800F03EFCE0601CB010BDEC3A0008E6
:101C10000000002030B585B000241C4800940194D9
:101C200002940394816941F020018161816901F08E
:101C300020010491816941F004018161816901F011
:101C400004010491816941F0080181618069104DAE
:101C500000F0080004900022F8212846FFF77FF8E2
:101C60004FF40040CDE9000469460A480294FEF7AB
:101C700091FFF82000900120CDE90104022003909B
:101C800069462846FEF786FF05B030BD00100240C9
:101C9000000C01400008014010B58EB000240794EC
:101CA000089409940A940B941C2168460C94FEF73E
:101CB0000BFB2248204901604721C0E9011440F292
:101CC000E731C0E903148461FFF78EFC08B1FEF729
:101CD000F1FC4FF48050079007A91848FFF7EEFC7D
:101CE00008B1FEF7E7FC1548FFF797FE08B1FEF7CD
:101CF000E1FC0B940BA911480C94FFF745FC08B1CB
:101D0000FEF7D8FC6020CDE9000402940822694661
:101D10000A480494FFF71BFE08B1FEF7CBFC0C2227
:101D200069460648FFF713FE08B1FEF7C3FC0348F7
:101D3000FFF7E6FD0EB010BD00040040040D0020CA
:101D4000FEE7FEE71F4C2048FEF7C4FE32211E4886
:101D5000FEF722FE1C48FEF75FFD80052ED51A48CF
:101D6000FEF75CFD606101F0D8FB6FF00B0201F043
:101D700077FE4FF06632154B01F0E2FB144A154B2B
:101D800001F0DEFB144A154B01F0DAFB01F05CF9BF
:101D9000A06101F0BDFD0022114B01F0CFFC00223B
:101DA000104B01F033FA00220F4B01F0C9FB01F098
:101DB00085FBE060642801DD6420E060C82000F05D
:101DC00054FBC0E714010020D40C002066660A40D2
:101DD000B81E85EB513826403D0AD7A3703DF03F31
:101DE00000002E40000014400000594010B5502063
:101DF00080F31188BFF34F8FBFF36F8F01F05EF850
:101E000018B104494FF080500860002080F3118819
:101E100010BD000004ED00E030B593B02821684605
:101E2000FEF752FA14210AA8FEF74EFA0025012007
:101E30000F9510951195010412958DE823000490DB
:101E40004FF4E010CDE90810022407946846FFF72C
:101E500009FA08B172B6FEE70AA90F2081E831003D
:101E60004FF48060CDE90D0502210AA8FFF70EF9B5
:101E700008B172B6FEE74FF4004011900F940FA81E
:101E8000FFF78EF8002801D072B6FEE713B030BD20
:101E9000704700000148FFF780BC00004C0D002097
:101EA00070B50268134B144C4FF08046984203D033
:101EB000B04201D0A04203D122F070054A682A4303
:101EC000984203D0B04201D0A04203D122F4407422
:101ED000CA6822434C6922F08002224302608A6869
:101EE000C2620A688262984201D1096901630121D4
:101EF000416170BD002C01400004004010B501F0AC
:101F00001F030121046A99408C430462016A9A40CC
:101F10001143016210BD10B5846842EA032224F423
:101F20007F440A432243826010BD826822F070021F
:101F30000A4342F0070181607047000030B5036A30
:101F4000026A22F0010202624268846924F0730589
:101F50000C682C4323F002058B682B430A4DA842E2
:101F60000BD123F00805CB6822F440722B434D6956
:101F700023F0040315438A692A4342608461496857
:101F80004163036230BD0000002C014030B5026A9D
:101F9000036A23F010030362436884690D6824F424
:101FA000E64444EA05248D6822F0200242EA051244
:101FB0000B4DA8420ED1CD6822F0800242EA0512F4
:101FC0004D6923F4406343EA85038D6922F04002A2
:101FD00043EA85034360846149688163026230BDDE
:101FE000002C014030B5036A026A22F4807202625A
:101FF0004268C46923F4007324F073050C682C4311
:102000008D6843EA05230C4DA8420ED1CD6823F418
:10201000006343EA05234D6922F4405242EA051267
:102020008D6923F4806342EA05124260C461496805
:10203000C163036230BD0000002C014030B5046A6A
:10204000026A22F4805202624268C3690D6823F476
:10205000E64343EA05238D6824F4005444EA05343A
:10206000064DA84204D14D6922F4804242EA85120D
:102070004260C36149680164046230BD002C0140C4
:1020800010B5036A046A24F001040462846924F030
:10209000F00444EA021423F00A020A438461026253
:1020A00010BD10B5036A046A24F010040462846948
:1020B00023F0A00324F4704444EA023243EA0111FD
:1020C0008261016210BDFEE70907090E002804DBEA
:1020D00000F1E02080F80014704700F00F0000F1DC
:1020E000E02080F8141D704710B5094800F0A6FCE8
:1020F0000020074A01460C3202EB0013401C197005
:102100000828F9D3BDE81040014800F0B2BC000037
:102110008800002010B504000AD00B4800F08EFCA7
:1021200020680178012907D072B6FEF7C3FAFEE7EE
:1021300072B6FEF7BFFAFEE7001D00F07FFCBDE8B7
:102140001040014800F095BC8800002010B5040044
:102150000AD00B4800F072FC20680178012907D0F2
:1021600072B6FEF7A7FAFEE772B6FEF7A3FAFEE72D
:1021700000210170BDE81040014800F07ABC000069
:102180008800002010B5040010D0164800F056FC5E
:102190001448002110F10C0000EB011212783AB142
:1021A000491C0829F8D30F4800F063FC002010BD3B
:1021B00000EB01100121206001702168091D0CD085
:1021C0000020024641F82020401C0228FAD30A725F
:1021D000044800F04EFC012010BD72B6FEF76AFA0A
:1021E000FEE700008800002010B504000AD00B486C
:1021F00000F024FC20680178012907D072B6FEF7B0
:1022000059FAFEE772B6FEF755FAFEE7001D00F038
:1022100030FCBDE81040014800F02BBC88000020D5
:102220002DE9F0417E4C0A22206890FBF2F393FBEB
:10223000F2F590FBF2F102FB153302FB110164256C
:1022400090FBF5F090FBF2F5C4E9023102FB1500BA
:1022500060600A290CD2DFE801F0050814171A1D86
:10226000202326294EF6880101E048F280012161F1
:102270000A2B24D2DFE803F01D20272A2D30333625
:10228000393C4DF60801F2E74DF68001EFE74BF2DD
:102290008001ECE74FF4F141E9E747F68801E6E712
:1022A00048F68001E3E74FF68801E0E74FF680014A
:1022B000DDE74FF4EE6101E04FF484616161D8B174
:1022C00001281AD117E040F24171F7E740F261614D
:1022D000F4E740F23141F1E740F27121EEE740F2DC
:1022E0007131EBE74FF48C61E8E740F27171E5E79B
:1022F00040F27161E2E70620A0614A4D484801269C
:102300002968C069052963D2DFE801F0870320410D
:1023100064008047216A00208847208A00F47046C4
:10232000300402D5616A01208847700402D5A16A91
:1023300001208847B00402D5E16A01208847F004F3
:1023400002D5216B01208847022040E08047616A66
:1023500000208847208A00F47066A08A00F470602C
:102360000643300502D5216A01208847700502D551
:10237000A16A01208847B00502D5E16A012088479B
:10238000F00502D5216B0120884703201FE080471C
:10239000A16A00208847207C00F0F006207D00F034
:1023A000F0000643300602D5216A012088477006F6
:1023B00002D5616A01208847B00602D5E16A012092
:1023C0008847F00602D5216B012088470420286049
:1023D000BDE8F0818047E16A00208847207C217EAB
:1023E00000F00F07207D01F00F0100F00F00074300
:1023F0000F43380702D5216A01208847780702D5A4
:10240000616A01208847B80702D5A16A0120884780
:10241000F80702D0216B012088472E60D8E7000022
:10242000841A00208000002010B54FF400410348BA
:10243000FEF790FC012800D0002010BD00080140EC
:10244000FEF7A0FCFFF7E8FCFFF7E4FBFFF786FBD5
:10245000FFF722FCFFF7AAFB00F00EF8FEE70146AB
:102460000020842900D0C81C704710B500B9012095
:1024700000F0E6FB002010BD10B500F007FC0020C6
:1024800010BD7FB50D4604464169B0F9080081B121
:10249000A16971B1FFF7E3FFD4E905128DE80700E8
:1024A000D4E900102B46226900F0DDFC039004B053
:1024B00070BDFFF7D4FF03A9CDE90001208A2B46A8
:1024C00082B2D4E9001000F0A1FC012801D0002064
:1024D000EDE70398EBE700002DE9F041184C0F46BB
:1024E000054666692068001D00F0E6FA38B92068E4
:1024F00090F82C1001208840A1698143A161681CDB
:1025000007D137B12168BDE8F0410E48091D00F040
:1025100017BB20683544B5424560216805D2A068E4
:10252000BDE8F041091D00F0F3BA6068091D00F034
:10253000EFFA206B854200D22563BDE8F0810000F0
:1025400020000020700E00202DE9F041054600F02B
:1025500003FB2E4C2069401C206120682C4F10B1D9
:10256000E06940B32DE025602069012829D10026CB
:1025700006EB860007EB800000F0BCFA761C072E05
:10258000F6D323488C3000F0B5FA2148A03000F093
:10259000B1FA1F48B43000F0ADFA1D48C83000F061
:1025A000A9FA1B48DC3000F0A5FA19488C306060AD
:1025B0001430A06005E02068E96AC06A884200D84B
:1025C0002560E06A401CE062E96A0120A269884057
:1025D0001043A06101EB810007EB8000291D00F092
:1025E000AFFA00F0D9FAE06900280CD02068E96A57
:1025F000C06A884207D207494FF080500860BFF395
:102600004F8FBFF36F8FBDE8F081000020000020E6
:10261000940D002004ED00E010B5044690F8510040
:1026200058B101280CD002280FD0502080F3118817
:10263000BFF34F8FBFF36F8FFEE7206B00F0C0FA40
:102640002046BDE8104000F0BBBA10BD10484FF462
:102650004061420706D0C01D0D4920F00700411A15
:10266000C1F540610B4A00230144C2E90003083967
:10267000103A21F0070111604B600B600B1AC0E9A2
:10268000001393604FF000405360D060704700002B
:10269000840E00206C000020144E154CA6F1C807D3
:1026A0004FF08058DFF84C9012E000BF00F054FA71
:1026B000F068C568281D00F0FFF92069401E206100
:1026C000E068401EE06000F067FA2846FFF7A4FFCC
:1026D000E0680028EAD138680128F9D9C9F80080F3
:1026E000BFF34F8FBFF36F8FF2E700005C0E002047
:1026F0002000002004ED00E02DE9F0479A46DDE9D6
:10270000098481466FF00303206B03EB82021044BF
:10271000089D20F00706700707D0502080F311882D
:10272000BFF34F8FBFF36F8FFEE723180A5C83F868
:1027300034200A5C12B1401C1028F6D3002784F81C
:102740004370072D00D30625E562C4E91157201D0B
:1027500000F0DBF904F1180000F0D7F92461C5F1AD
:1027600007006462A061E76484F8507052464946ED
:10277000304600F0BFF82060B8F1000F01D0C8F873
:102780000040BDE8F087000030B5114900E0114677
:102790000A688242FBD34B685C18844203D14068CC
:1027A00018444860084643681C18944209D1084CF4
:1027B000103C2468A24209D052681A4442600A6858
:1027C00012680260814200D0086030BD0460F9E701
:1027D0006C00002006484168096829B14168C96851
:1027E000C9684968016370474FF0FF31FAE700009C
:1027F0002000002008484068401C4FF0500080F343
:10280000118804D0BFF34F8FBFF36F8FFEE7BFF384
:102810004F8FBFF36F8FFEE7740000202DE9F0416A
:102820000546002700F068FA314E306808B9FFF716
:102830000DFFF06805424BD1C5B3083568070ED0CF
:1028400005F00700C0F108000544680707D05020D4
:1028500080F31188BFF34F8FBFF36F8FFEE72DB367
:102860007068854234D82248103001460C6801E077
:1028700020460C466168A94202D221680029F7D19E
:1028800031688C4224D0076821680160606808378D
:10289000411B10290FD96019420708D0502080F33E
:1028A0001188BFF34F8FBFF36F8FFEE710E04160D9
:1028B0006560FFF769FF61687068401A7060B26810
:1028C000904200D2B060F06801430020C4E90001EA
:1028D00000F058FB780707D0502080F31188BFF331
:1028E0004F8FBFF36F8FFEE73846BDE8F0810000E1
:1028F0005C00002010B5031F4FF080741C601B1F8C
:1029000021F001011960191F024B0B601439403886
:102910000A6010BDF52700087FB50446002002902C
:1029200008200090012001900220074D0390694685
:102930002846FEF72FF90CB1012200E00022082101
:102940002846FEF70CFA7FBD000C01401FB50020A1
:1029500001900290F82000900220039069460248FE
:10296000FEF718F91FBD0000000C01407FB50446BA
:102970000020029010200090012001900220074DBD
:10298000039069462846FEF705F90CB1012200E0E4
:10299000002210212846FEF7E2F97FBD000C01401D
:1029A0007FB5044600200290202000900120019075
:1029B0000220074D039069462846FEF7EBF80CB15C
:1029C000012200E0002220212846FEF7C8F97FBD41
:1029D000000C01407FB5044600200290402000908A
:1029E000012001900220074D039069462846FEF71A
:1029F000D1F80CB1012200E0002240212846FEF768
:102A0000AEF97FBD000C01407FB504460020029066
:102A100080200090012001900220074D039069461C
:102A20002846FEF7B7F80CB1012200E00022802111
:102A30002846FEF794F97FBD000C014010B530B177
:102A4000017A022907D372B6FDF734FEFEE772B6AB
:102A5000FDF730FEFEE75022EFF3118382F3118879
:102A6000BFF34F8FBFF36F8F8A00491C01728350F1
:102A700010BD10B548B1017A491EC9B201720229D0
:102A800007D372B6FDF716FEFEE772B6FDF712FE2B
:102A9000FEE750F8210080F3118810BD05480022A0
:102AA0004168491C4160052900DD42600121017235
:102AB0000261704714010020D0E9013201699A6077
:102AC000D0E901235A604A68824201D182684A6093
:102AD000002202610868401E086008687047000014
:102AE000034B036003F154000860802010607047BE
:102AF0003001002000F108014FF0FF32C0E901125F
:102B0000C1600161002101607047002101617047CF
:102B100030B50B685A1C02D000F1080202E00269CD
:102B200004E02246546825689D42FAD953684B60F8
:102B300099608A60516008610168491C016030BD7C
:102B400042684A6093688B6093685960916008613D
:102B50000168491C01607047502080F31188BFF361
:102B60004F8FBFF36F8F0A494868401C48600128A7
:102B70000CD10848006810F0FF0F07D0502080F3F8
:102B80001188BFF34F8FBFF36F8FFEE770470000D0
:102B90007400002004ED00E00849486828B1401E98
:102BA000486001D180F311887047502080F311886C
:102BB000BFF34F8FBFF36F8FFEE70000740000205C
:102BC00070B5002827D0144DA0F108046168E868AA
:102BD000014207D1502080F31188BFF34F8FBFF31C
:102BE0006F8FFEE722683AB1502080F31188BFF35F
:102BF0004F8FBFF36F8FFEE78143616000F07CF879
:102C000060686968084468602046FFF7BDFDBDE85C
:102C1000704000F0B7B970BD5C0000204FF0E020BC
:102C200000210161816105494FF47A720968B1FBA5
:102C3000F2F1491E41610721016170471C0000202B
:102C400010B5020014D00F48806B38B1502080F3CB
:102C50001188BFF34F8FBFF36F8FFEE700F04CF882
:102C600000211046FFF738FC00F08CF9002807D14E
:102C700005494FF080500860BFF34F8FBFF36F8F4F
:102C800010BD00002000002004ED00E010B586B06B
:102C90000024039405AA04A903A80494FFF720FFC5
:102CA000DDE903010094CDE9011000230EA11048D5
:102CB000059A00F0D8F80F490028486311D0502039
:102CC00080F31188BFF34F8FBFF36F8F4FF0FF304A
:102CD00008630120C8614C6106B0BDE8104000F0F7
:102CE00041B806B010BD000049444C45000000004A
:102CF00099260008200000200248816B491C81634E
:102D000070470000200000201448816B11B10121A0
:102D100041627047002141628169B1FA81F1C1F1DC
:102D20001F0101EB81020E4951F822306BB101EB1A
:102D3000820101F108034A6852684A609A4201D14F
:102D400052684A60D16801607047502080F3118852
:102D5000BFF34F8FBFF36F8FFEE70000200000200E
:102D6000940D00201CB5264908780190FF200870BA
:102D700008788DF800009DF800009DF8002000F014
:102D8000F000904207D0502080F31188BFF34F8F9E
:102D9000BFF36F8FFEE79DF800001A4B00F0500064
:102DA00018700720986005E09DF8002052008DF80B
:102DB0000020401E9DF800201206F5D498600328DC
:102DC00007D0502080F31188BFF34F8FBFF36F8F70
:102DD000FEE74FF440709860019808700A48016857
:102DE00041F470010160016841F070410160FFF73A
:102DF00015FF00205860FDF7DBF900201CBD000026
:102E000000E400E07400002020ED00E02DE9FF5F09
:102E10008346DDE90E87994616468A469000FFF7FD
:102E2000FDFC05001CD05420FFF7F8FC040014D072
:102E30000020256384F85100CDE90240CDE90087E8
:102E40004B46324651465846FFF756FC2046FFF7A0
:102E50007BFB012004B0BDE8F09F2846FFF7B0FEE1
:102E60004FF0FF30F6E7F0B585B0DDE90B640A9D61
:102E7000A6B1DCB1542700972663022684F851607E
:102E8000002604AFCDE90246CDE90057FFF734FC38
:102E90002046FFF759FB049805B0F0BD502080F3A1
:102EA0001188BFF34F8FBFF36F8FFEE7502080F381
:102EB0001188BFF34F8FBFF36F8FFEE72DE9F0410D
:102EC0002E4C0027A06B40B1206A401C2062606A33
:102ED00000B101273846BDE8F0816669761C66615D
:102EE00013D16068006838B1502080F31188BFF3B7
:102EF0004F8FBFF36F8FFEE76068A1686160A060CD
:102F0000A06A401CA062FFF765FC206BDFF87080B0
:102F1000864209D36068006880B16068C068C5688F
:102F2000686886420DD220632068C06A00EB800189
:102F300058F821000128CAD90127C8E74FF0FF300F
:102F4000F1E7281DFFF7B8FDA86A18B105F11800D0
:102F5000FFF7B2FDE86A0121A26981401143A16136
:102F600000EB800108EB8100291DFFF7E9FDE86A0D
:102F70002168C96A8842CDD30127CBE72000002011
:102F8000940D00202DE9F0472C4D00242746A86B16
:102F900038B1FFF7E1FDA86B401EA863A86B40B1F4
:102FA00046E0502080F31188BFF34F8FBFF36F8F3F
:102FB000FEE72969224E0120D1B3A6F1B40980466B
:102FC0003068E8B1F068C46804F11800FFF774FDD8
:102FD000201DFFF771FDE06AAA6908FA00F11143AC
:102FE000A96100EB800109EB8100211DFFF7A8FD1D
:102FF000E06A2968C96A8842E2D3C5F82480DFE71D
:103000000CB1FFF7E7FB2C6A44B14646FFF756FFC9
:1030100000B16E62641EF9D100202862686A38B17E
:103020000849012738070860BFF34F8FBFF36F8F40
:10303000FFF7B2FD3846BDE8F08700002000002011
:10304000480E002004ED00E021F00042A2F16052A1
:10305000B2F5801F01F0004328BFD2F17F6C0BD97D
:103060005FEA001C43EAC20242EB507018BF70478F
:1030700028BF20F001007047B2F5801FBCBF184682
:1030800070474FEA410C1CF5001F02D2084600F0C1
:10309000B0BC70B500F0FEFA00000089FFF7F6BF83
:1030A0004FF00040A0F580007047000010B591EA95
:1030B000030F48BF83F0004300F14883841A71EB8B
:1030C000030C05D2121943EB0C03001B61EB0C013E
:1030D000DFF824E14FEA1154A4EB135C1EEA430F1E
:1030E00018BF9EEA445F73D023EA0E03DCF1200E82
:1030F00021EA045143F4801332D322FA0CFE10EB80
:103100000E0023FA0CFE41EB0E01CCF1200E03FA67
:103110000EFE10EB0E0051F10001B1F5801FCCF155
:10312000200E32D201EB045112FA0EF2BDE810402B
:1031300058BF7047401C38BF5FEA420218BF704753
:10314000002814BF20F0010041F100014FEA4103C3
:1031500013F5001F38BF7047A1F1C04100F0E8BA75
:10316000012A43EB0302ACF1200CDCF11F0E32BF4D
:103170004FF0000E23FA0CF310EB030041EB045167
:10318000B4EB115FD0D0A1EB045101F580114908D7
:103190005FEA300001EB04510ED350F1000038BF5C
:1031A00012FA0EFE08D1BDE81040C9E7401C38BF36
:1031B0005FEA4202CAD1C3E7BDE810404FEA4103CB
:1031C00013F5001F38BF7047A1F1C04100F0B0BA3D
:1031D0009EEA445F08D011EA5E0FBDE8104004BFCC
:1031E00001F0004100207047BDE8104070B500F0CC
:1031F00051FA00BF64FBBE3E0000E0FF02494FF001
:10320000000000F0FBBB00BF0000F87F2DE9C041CB
:1032100030B4DFF8A0C23CEA111418BF3CEA131422
:1032200000F0EC8081EA03051CEA111444EAD5742D
:1032300018BF1CEA131500F0C780A4EB05044FF07B
:10324000004545EAC12145EAC32341EA505143EA1A
:10325000525304F17F74994204F500344FEAC020C0
:103260004FEAC22208BF904200F09C804FEA1365EB
:103270000FF24016765D4FEA134506FB05F7C7F1DE
:10328000807706FB07F74FEAD737A7FB036876423C
:10329000C8F58038A7FB06CE38BFA8F1010807FBA8
:1032A00008E64FF0000EA6FB028CE6FB03CEDCF135
:1032B000000CCEF1004E38BFAEF1010EA6FB0C584B
:1032C0004FF000074FF00005E6FB0E87A1FB08C694
:1032D000A0FB07CE16EB0E0645F10005E1FB0765E6
:1032E00015F1E04E7EBFA4F580345FEA46066D41DD
:1032F00016F1800745F100054FEA17274FEA0666E9
:1033000047EA0567A6F1DE46B6F1805F4FEA15256C
:103310001FD9384624F0010C05EBC471BCF1FE6FD7
:1033200001EB0C1102D8F0BCBDE8008124425CBF67
:1033300001F5801E9EEAC47F02D4F0BCBDE8008186
:10334000244238D4F0BCA1F1C041BDE8004100F0F6
:10335000EFB94FEAD22242EA43524FEAD323A7FB06
:1033600002864FEAD02040EA415007FB03661EEA7E
:103370000E0F4FEAD12105FB026658BFA6EB00569F
:10338000B6EB00564FEA520E4EEAC37E18EB0E0E15
:1033900056EB530EBDD518EB02085E417F1C55F16C
:1033A0000005B6E74FF480154FF000074FF0000618
:1033B0004FF00008ADE7F0BC4FF0000001F1C04154
:1033C00001F00041BDE8008111EA0C1F0CEA131561
:1033D00000D00CE013EA0C1F00F025804FF0000035
:1033E000F0BC81EA030101F00041BDE80081F0BCBE
:1033F000BDE8004181EA030100F09AB9F0BCBDE8E4
:10340000004170B500F046F9097EFC3E00F007B8B7
:1034100081EA03014FF0000001F00041704781EAAA
:10342000030100F085B9F0BCBDE800414FF0000099
:1034300021497047FFFDFBF9F7F5F4F2F0EEEDEBF3
:10344000E9E8E6E4E3E1E0DEDDDBDAD8D7D5D4D3A2
:10345000D1D0CFCDCCCBCAC8C7C6C5C4C2C1C0BFEE
:10346000BEBDBCBBBAB9B8B7B6B5B4B3B2B1B0AFF4
:10347000AEADACABAAA9A8A8A7A6A5A4A3A3A2A1D8
:10348000A09F9F9E9D9C9C9B9A9999989797969593
:1034900095949393929191908F8F8E8E8D8C8C8B2F
:1034A0008B8A8989888887878685858484838382B7
:1034B000828181800000FF070000F87F4FEA41030E
:1034C0004FEA5353A3F58063D3F11E03C8BFD3F172
:1034D000210C0CDD4FF0004242EAC12242EA505278
:1034E00032FA03FC8CEAE17CACEBE1707047102B04
:1034F000C4BF0020704703F5787CBCF1FF3F04D0C7
:103500006FF0004282EA2100704770B500F0C2F807
:103510004992248000207047F2E7B0FA80F310FA55
:1035200003F10AD0C3F11D0303F580634FEA415054
:103530004FEA035202EBD12170474FF00000704771
:10354000DFF848C170B51CEA111E1EBF1CEA131536
:103550009EEA0C0F95EA0C0F00F06F8081EA0304DD
:1035600023EA4C134EEAD47E21EA4C1141F4801137
:1035700043F48013AE44A1FB024CA0FB0365AEF103
:103580007F7E361955EB0C05A1FB034C4CF1000373
:10359000A0FB021C16EB0C06654153F10003094227
:1035A00018BF46F0010613F4007F0BD14FEA033138
:1035B0004FEA0530340341EA155140EA16506FF0E6
:1035C00003020AE04FEAC3214FEAC520F40241EAB0
:1035D000555140EA56506FF0020202EB2E4201EBC9
:1035E000025585EACE710AD05FEA440C18BF24F078
:1035F000004450F1000041F1000120EAD47040F293
:10360000FE7C624500D270BDA84214BF4FF08044DA
:103610004FF04044002E08BF0024BEF1806FA8BFC9
:10362000A1F1C041BDE8704080F282804FF00000FF
:1036300001F1C04101F0004170479EEA0C0F0CEA15
:10364000131518BF95EA0C0F06D04FF0000081EA61
:10365000030E0EF0004170BD00F01CF88900013E21
:1036600000F007B800F009B84FEA430C5FEA5C5C71
:1036700008D081EA030100F05BB84FEA410C5FEA31
:103680005C5CF6D14FF00000014970470000FF0775
:103690000000F87F0EF1020E2EF0030E5EF8046BB0
:1036A000364205D4012A43EB030515F5001F12D855
:1036B000012841EB010C1CF5001F0CD80ED14FEA7C
:1036C000D17C15F5001F0CEB4C0C0CF1020C08BF63
:1036D0004CEBD37C04E04FF0080C01E04FEAD37CC4
:1036E0000CEB4C0526FA05F606F00706B6F1040CBD
:1036F00006D20EEB860CBDE870404CF0010C604722
:10370000DFE80CF0090B02024FF000414FF000001F
:10371000A1F5002170BD19461046012851EB0104A6
:1037200018BFD4F5001484BF002001F0004170BD23
:103730000808A0F500114FEA3101704710B591EA71
:10374000030F48BF83F000433FF5B8AC841A71EB18
:10375000030C07D212198CF0004C43EB0C03001B36
:1037600061EB0C01DFF8A4E14FEA1154A4EB135C08
:103770001EEA430F18BF9EEA445F00F0B08023EAC0
:103780006E03524221EA0451C3EB6E0338BF5B1E45
:10379000DCF1200E25D322FA0CFE10EB0E0043FACA
:1037A0000CFE41EB0E01CCF1200E03FA0EFE10EBE5
:1037B0000E0051F10001CCF1200E29D412FA0EF2C4
:1037C00001EB0451BDE8104058BF7047401C1CBFBE
:1037D000B2F1004F704700280CBF491C20F00100D7
:1037E000704712EB020E43EB030218BF4FF0010EBD
:1037F0004EEA4202ACF1200CDCF11E0E54D943FA21
:103800000CFE10EB0E0051F1FF31CCF11E0ED5D5A0
:103810000EF1010E12FA0EFE404141EB010101EBE7
:10382000445C5FEA5C5C10D910EBDE7001EB045184
:1038300038BFBEF1004FBDE8104018BF70470028E8
:103840000CBF491C20F00100704730D24FEAD42C45
:1038500011F5001124F400641BD0B1FA81F20B3A87
:10386000A41AA41ED2F12003914030FA03F31943A5
:10387000904001EBCC71002C01EB0451BDE81040ED
:10388000A8BF704701F1C0414FF0000001F00041B6
:103890007047B0FA80F310FA03F100D110BDE41ABA
:1038A000173C4805C90AE4E701EB045110BD491073
:1038B00001EB0451BDE810404FEA300002E04FF048
:1038C000000170474A0008BF0042F8D0B2F5001F5F
:1038D00028BF704701F000414FF0000070479EEA9A
:1038E000445F07D011EA5E0FBDE8104004BF00211D
:1038F00000207047BDE8104070B5FFF7CBFE00BF59
:1039000040DFF63E83F00041104670470000E0FFC4
:1039100043004FEAD30C4FEA3C0C43401FBF400723
:103920000CF1605113F0FE4F70471CF0006F03D193
:1039300000200CF0004170470CF0004343EA507047
:1039400010B540EACC0000F00EF800BF0000009275
:103950004FEA0001FFF7ECBE4FF000414FF00000CE
:10396000A1F5002170470EF1020E2EF0030E5EF855
:10397000044B244204D44FEA4102B2F17F4F11D8E4
:103980004FEA4003B3F17F4F0CD80ED14FEAD07C01
:10399000B2F17F4F0CEB4C0C0CF1020C08BF4CEB5E
:1039A000D17C04E04FF0080C01E04FEAD17C0CEB35
:1039B0004C0324FA03F404F00704B4F1040C06D217
:1039C0000EEB840CBDE810404CF0010C6047DFE8C2
:1039D0000CF0070802024FF00040A0F5800010BD77
:1039E0000846420018BFD2F1807288BF00F0004044
:1039F00010BDFF2141EAD050C00570470CF00F0305
:103A0000092B08BF082000F059800A2B0BD0082B87
:103A100018BF704708BF1CF0400F0AD04FF00000DD
:103A20004FF0000170471CF0400F18BF4FF00040EE
:103A300070471CF0100F08D020F0704300F07F4258
:103A400042EAD3014FEA4370704700F0604021F032
:103A50007F4242EA000201F07F4040EA7270704704
:103A60004FF0FF0C4CF4E06C1CEA11531CBF9CEAB5
:103A7000030C9445C2BFDA4201EB02517047002BA0
:103A80000DD0BCF1000F0FD0002A01F00041A4BFFF
:103A900041F0E04141F07F614FF00000704701F0DC
:103AA00000414FF00000704750EA01334FF09B0C8B
:103AB00018BF4CF0806C7FF4A1AB70471CF4801FE2
:103AC00011D01CF4E02F03D06FEACC3149007047CD
:103AD0004FF04050EFF3008222F0704242EA0002C1
:103AE00082F3008870474FF000007047A03B000849
:103AF000451D0008000000000000000080000000DC
:103B00008403002084050020A83B00084906000823
:103B1000FEFF00000000000080000000D80500202B
:103B2000D8070020983B0008B9060008FEFF0000F7
:103B300000000000800000002C0800202C0A00205B
:103B4000B03B0008251B0008FEFF0000000000003D
:103B500080000000800A0020800C00200102020387
:103B60000405060708090A0B0C0D0E0F10100102C0
:103B700002030405060708090A0B0C0D0E0F1010AE
:103B8000000000000000000001020304060708090D
:103B9000000000000102030467656172000000007C
:103BA000706F776572000000646973706C617900F2
:103BB0006B657900D83B00080000002088000000F9
:103BC00028010008603C000888000020C820000090
:103BD0004401000815E5FFFF0000000000000000A0
:103BE00000000000000000000100000010000000C4
:103BF000000000000024F4000000000000000000AD
:103C000000000000000000000000000000000000B4
:103C100000000000000000000000000000000000A4
:103C20000000000000000000000000000000000094
:103C30000000000000000000000000000000000084
:103C40000000000000000000000000000000000074
:103C5000AAAAAAAA000000000000000000000000BC
:04000005080000ED02
:00000001FF
